{
  "contractName": "ClientRaindrop",
  "abi": [
    {
      "constant": true,
      "inputs": [],
      "name": "hydroStakeUser",
      "outputs": [
        {
          "name": "",
          "type": "uint256"
        }
      ],
      "payable": false,
      "stateMutability": "view",
      "type": "function"
    },
    {
      "constant": true,
      "inputs": [],
      "name": "hydroStakeDelegatedUser",
      "outputs": [
        {
          "name": "",
          "type": "uint256"
        }
      ],
      "payable": false,
      "stateMutability": "view",
      "type": "function"
    },
    {
      "constant": false,
      "inputs": [],
      "name": "renounceOwnership",
      "outputs": [],
      "payable": false,
      "stateMutability": "nonpayable",
      "type": "function"
    },
    {
      "constant": true,
      "inputs": [],
      "name": "callOnAddition",
      "outputs": [
        {
          "name": "",
          "type": "bool"
        }
      ],
      "payable": false,
      "stateMutability": "view",
      "type": "function"
    },
    {
      "constant": true,
      "inputs": [],
      "name": "snowflakeDescription",
      "outputs": [
        {
          "name": "",
          "type": "string"
        }
      ],
      "payable": false,
      "stateMutability": "view",
      "type": "function"
    },
    {
      "constant": true,
      "inputs": [],
      "name": "snowflakeName",
      "outputs": [
        {
          "name": "",
          "type": "string"
        }
      ],
      "payable": false,
      "stateMutability": "view",
      "type": "function"
    },
    {
      "constant": true,
      "inputs": [],
      "name": "owner",
      "outputs": [
        {
          "name": "",
          "type": "address"
        }
      ],
      "payable": false,
      "stateMutability": "view",
      "type": "function"
    },
    {
      "constant": true,
      "inputs": [],
      "name": "callOnRemoval",
      "outputs": [
        {
          "name": "",
          "type": "bool"
        }
      ],
      "payable": false,
      "stateMutability": "view",
      "type": "function"
    },
    {
      "constant": true,
      "inputs": [],
      "name": "isOwner",
      "outputs": [
        {
          "name": "",
          "type": "bool"
        }
      ],
      "payable": false,
      "stateMutability": "view",
      "type": "function"
    },
    {
      "constant": false,
      "inputs": [
        {
          "name": "newOwner",
          "type": "address"
        }
      ],
      "name": "transferOwnership",
      "outputs": [],
      "payable": false,
      "stateMutability": "nonpayable",
      "type": "function"
    },
    {
      "constant": true,
      "inputs": [],
      "name": "snowflakeAddress",
      "outputs": [
        {
          "name": "",
          "type": "address"
        }
      ],
      "payable": false,
      "stateMutability": "view",
      "type": "function"
    },
    {
      "inputs": [
        {
          "name": "snowflakeAddress",
          "type": "address"
        },
        {
          "name": "oldClientRaindropAddress",
          "type": "address"
        },
        {
          "name": "_hydroStakeUser",
          "type": "uint256"
        },
        {
          "name": "_hydroStakeDelegatedUser",
          "type": "uint256"
        }
      ],
      "payable": false,
      "stateMutability": "nonpayable",
      "type": "constructor"
    },
    {
      "anonymous": false,
      "inputs": [
        {
          "indexed": true,
          "name": "ein",
          "type": "uint256"
        },
        {
          "indexed": false,
          "name": "hydroID",
          "type": "string"
        },
        {
          "indexed": false,
          "name": "userAddress",
          "type": "address"
        }
      ],
      "name": "HydroIDClaimed",
      "type": "event"
    },
    {
      "anonymous": false,
      "inputs": [
        {
          "indexed": true,
          "name": "ein",
          "type": "uint256"
        },
        {
          "indexed": false,
          "name": "hydroID",
          "type": "string"
        },
        {
          "indexed": false,
          "name": "userAddress",
          "type": "address"
        }
      ],
      "name": "HydroIDDestroyed",
      "type": "event"
    },
    {
      "anonymous": false,
      "inputs": [
        {
          "indexed": true,
          "name": "previousOwner",
          "type": "address"
        },
        {
          "indexed": true,
          "name": "newOwner",
          "type": "address"
        }
      ],
      "name": "OwnershipTransferred",
      "type": "event"
    },
    {
      "constant": false,
      "inputs": [
        {
          "name": "snowflakeAddress",
          "type": "address"
        }
      ],
      "name": "setSnowflakeAddress",
      "outputs": [],
      "payable": false,
      "stateMutability": "nonpayable",
      "type": "function"
    },
    {
      "constant": false,
      "inputs": [
        {
          "name": "oldClientRaindropAddress",
          "type": "address"
        }
      ],
      "name": "setOldClientRaindropAddress",
      "outputs": [],
      "payable": false,
      "stateMutability": "nonpayable",
      "type": "function"
    },
    {
      "constant": false,
      "inputs": [
        {
          "name": "_hydroStakeUser",
          "type": "uint256"
        },
        {
          "name": "_hydroStakeDelegatedUser",
          "type": "uint256"
        }
      ],
      "name": "setStakes",
      "outputs": [],
      "payable": false,
      "stateMutability": "nonpayable",
      "type": "function"
    },
    {
      "constant": false,
      "inputs": [
        {
          "name": "_address",
          "type": "address"
        },
        {
          "name": "casedHydroId",
          "type": "string"
        }
      ],
      "name": "signUp",
      "outputs": [],
      "payable": false,
      "stateMutability": "nonpayable",
      "type": "function"
    },
    {
      "constant": false,
      "inputs": [
        {
          "name": "ein",
          "type": "uint256"
        },
        {
          "name": "",
          "type": "uint256"
        },
        {
          "name": "extraData",
          "type": "bytes"
        }
      ],
      "name": "onAddition",
      "outputs": [
        {
          "name": "",
          "type": "bool"
        }
      ],
      "payable": false,
      "stateMutability": "nonpayable",
      "type": "function"
    },
    {
      "constant": true,
      "inputs": [
        {
          "name": "casedHydroID",
          "type": "string"
        },
        {
          "name": "_address",
          "type": "address"
        }
      ],
      "name": "checkForOldHydroID",
      "outputs": [],
      "payable": false,
      "stateMutability": "view",
      "type": "function"
    },
    {
      "constant": false,
      "inputs": [
        {
          "name": "ein",
          "type": "uint256"
        },
        {
          "name": "",
          "type": "bytes"
        }
      ],
      "name": "onRemoval",
      "outputs": [
        {
          "name": "",
          "type": "bool"
        }
      ],
      "payable": false,
      "stateMutability": "nonpayable",
      "type": "function"
    },
    {
      "constant": true,
      "inputs": [
        {
          "name": "uncasedHydroID",
          "type": "string"
        }
      ],
      "name": "hydroIDAvailable",
      "outputs": [
        {
          "name": "available",
          "type": "bool"
        }
      ],
      "payable": false,
      "stateMutability": "view",
      "type": "function"
    },
    {
      "constant": true,
      "inputs": [
        {
          "name": "uncasedHydroID",
          "type": "string"
        }
      ],
      "name": "hydroIDDestroyed",
      "outputs": [
        {
          "name": "destroyed",
          "type": "bool"
        }
      ],
      "payable": false,
      "stateMutability": "view",
      "type": "function"
    },
    {
      "constant": true,
      "inputs": [
        {
          "name": "uncasedHydroID",
          "type": "string"
        }
      ],
      "name": "hydroIDActive",
      "outputs": [
        {
          "name": "active",
          "type": "bool"
        }
      ],
      "payable": false,
      "stateMutability": "view",
      "type": "function"
    },
    {
      "constant": true,
      "inputs": [
        {
          "name": "uncasedHydroID",
          "type": "string"
        }
      ],
      "name": "getDetails",
      "outputs": [
        {
          "name": "ein",
          "type": "uint256"
        },
        {
          "name": "_address",
          "type": "address"
        },
        {
          "name": "casedHydroID",
          "type": "string"
        }
      ],
      "payable": false,
      "stateMutability": "view",
      "type": "function"
    },
    {
      "constant": true,
      "inputs": [
        {
          "name": "_address",
          "type": "address"
        }
      ],
      "name": "getDetails",
      "outputs": [
        {
          "name": "ein",
          "type": "uint256"
        },
        {
          "name": "casedHydroID",
          "type": "string"
        }
      ],
      "payable": false,
      "stateMutability": "view",
      "type": "function"
    },
    {
      "constant": true,
      "inputs": [
        {
          "name": "ein",
          "type": "uint256"
        }
      ],
      "name": "getDetails",
      "outputs": [
        {
          "name": "_address",
          "type": "address"
        },
        {
          "name": "casedHydroID",
          "type": "string"
        }
      ],
      "payable": false,
      "stateMutability": "view",
      "type": "function"
    }
  ],
  "bytecode": "0x60806040523480156200001157600080fd5b506040516080806200328b833981018060405260808110156200003357600080fd5b50805160208083015160408085015160609586015182518084018452600f81527f436c69656e74205261696e64726f700000000000000000000000000000000000818701528351608081018552604481527f412072656769737472792074686174206c696e6b732045494e7320746f204879968101969096527f64726f49447320746f20706f77657220436c69656e74205261696e64726f7020868501527f4d46412e000000000000000000000000000000000000000000000000000000009786019790975260008054600160a060020a03191633178082559351969794969295919493919288926001928392600160a060020a0392909216917f8be0079c531659141344cd1fd0a4f28419497f9722a3daafe3b4186f6b6457e0908290a38451620001679060019060208801906200073e565b5083516200017d9060029060208701906200073e565b50620001928364010000000062000237810204565b6003805491151575010000000000000000000000000000000000000000000260a860020a60ff0219931515740100000000000000000000000000000000000000000260a060020a60ff021990931692909217929092161790555062000204915085905064010000000062000237810204565b62000218836401000000006200040b810204565b6200022d82826401000000006200049d810204565b50505050620007e0565b6200024a6401000000006200069a810204565b1515620002a757604080517f08c379a000000000000000000000000000000000000000000000000000000000815260206004820152601b60248201526000805160206200326b833981519152604482015290519081900360640190fd5b620002c08164010000000062002649620006ac82021704565b600081905080600160a060020a03166375d7e4bd6040518163ffffffff167c0100000000000000000000000000000000000000000000000000000000028152600401602060405180830381600087803b1580156200031d57600080fd5b505af115801562000332573d6000803e3d6000fd5b505050506040513d60208110156200034957600080fd5b505160048054600160a060020a031916600160a060020a03928316178155604080517fa759ee6f00000000000000000000000000000000000000000000000000000000815290519284169263a759ee6f928281019260209291908290030181600087803b158015620003ba57600080fd5b505af1158015620003cf573d6000803e3d6000fd5b505050506040513d6020811015620003e657600080fd5b505160058054600160a060020a031916600160a060020a039092169190911790555050565b6200041e6401000000006200069a810204565b15156200047b57604080517f08c379a000000000000000000000000000000000000000000000000000000000815260206004820152601b60248201526000805160206200326b833981519152604482015290519081900360640190fd5b60068054600160a060020a031916600160a060020a0392909216919091179055565b620004b06401000000006200069a810204565b15156200050d57604080517f08c379a000000000000000000000000000000000000000000000000000000000815260206004820152601b60248201526000805160206200326b833981519152604482015290519081900360640190fd5b692f0eadc32162377800008211156200058757604080517f08c379a000000000000000000000000000000000000000000000000000000000815260206004820152601260248201527f5374616b6520697320746f6f20686967682e0000000000000000000000000000604482015290519081900360640190fd5b600781905560048054604080517f18160ddd0000000000000000000000000000000000000000000000000000000081529051606493600160a060020a03909316926318160ddd92808201926020929091829003018186803b158015620005ec57600080fd5b505afa15801562000601573d6000803e3d6000fd5b505050506040513d60208110156200061857600080fd5b50518115156200062457fe5b048111156200069457604080517f08c379a000000000000000000000000000000000000000000000000000000000815260206004820152601260248201527f5374616b6520697320746f6f20686967682e0000000000000000000000000000604482015290519081900360640190fd5b60085550565b600054600160a060020a031633145b90565b620006bf6401000000006200069a810204565b15156200071c57604080517f08c379a000000000000000000000000000000000000000000000000000000000815260206004820152601b60248201526000805160206200326b833981519152604482015290519081900360640190fd5b60038054600160a060020a031916600160a060020a0392909216919091179055565b828054600181600116156101000203166002900490600052602060002090601f016020900481019282601f106200078157805160ff1916838001178555620007b1565b82800160010185558215620007b1579182015b82811115620007b157825182559160200191906001019062000794565b50620007bf929150620007c3565b5090565b620006a991905b80821115620007bf5760008155600101620007ca565b612a7b80620007f06000396000f3fe6080604052600436106101245763ffffffff60e060020a6000350416631328fd8f811461012957806330289c611461027457806333a9711d1461032657806352b7493b1461034d578063715018a614610362578063717902511461037957806376acf1b6146103a25780637c9348261461042c57806388cdab941461045f5780638da5cb5b146104745780638f06492d146104a55780638f32d59b146104ba57806390bfaf40146104cf5780639182621a1461058e578063996df2ad14610648578063a76c74b214610706578063aad9afbb146107b9578063b531ff121461086c578063b93a89f71461092f578063bb3f9cdd146109ad578063c979b05a146109dd578063e2a3b18b14610a10578063f2fde38b14610ac3578063f9f451b814610af6575b600080fd5b34801561013557600080fd5b506101dc6004803603602081101561014c57600080fd5b81019060208101813564010000000081111561016757600080fd5b82018360208201111561017957600080fd5b8035906020019184600183028401116401000000008311171561019b57600080fd5b91908080601f016020809104026020016040519081016040528093929190818152602001838380828437600092019190915250929550610b0b945050505050565b6040518084815260200183600160a060020a0316600160a060020a0316815260200180602001828103825283818151815260200191508051906020019080838360005b8381101561023757818101518382015260200161021f565b50505050905090810190601f1680156102645780820380516001836020036101000a031916815260200191505b5094505050505060405180910390f35b34801561028057600080fd5b506102a76004803603602081101561029757600080fd5b5035600160a060020a0316610c49565b6040518083815260200180602001828103825283818151815260200191508051906020019080838360005b838110156102ea5781810151838201526020016102d2565b50505050905090810190601f1680156103175780820380516001836020036101000a031916815260200191505b50935050505060405180910390f35b34801561033257600080fd5b5061033b610d12565b60408051918252519081900360200190f35b34801561035957600080fd5b5061033b610d18565b34801561036e57600080fd5b50610377610d1e565b005b34801561038557600080fd5b5061038e610db4565b604080519115158252519081900360200190f35b3480156103ae57600080fd5b506103b7610dd5565b6040805160208082528351818301528351919283929083019185019080838360005b838110156103f15781810151838201526020016103d9565b50505050905090810190601f16801561041e5780820380516001836020036101000a031916815260200191505b509250505060405180910390f35b34801561043857600080fd5b506103776004803603602081101561044f57600080fd5b5035600160a060020a0316610e60565b34801561046b57600080fd5b506103b7610ece565b34801561048057600080fd5b50610489610f28565b60408051600160a060020a039092168252519081900360200190f35b3480156104b157600080fd5b5061038e610f38565b3480156104c657600080fd5b5061038e610f5a565b3480156104db57600080fd5b5061038e600480360360608110156104f257600080fd5b81359160208101359181019060608101604082013564010000000081111561051957600080fd5b82018360208201111561052b57600080fd5b8035906020019184600183028401116401000000008311171561054d57600080fd5b91908080601f016020809104026020016040519081016040528093929190818152602001838380828437600092019190915250929550610f6b945050505050565b34801561059a57600080fd5b5061038e600480360360408110156105b157600080fd5b813591908101906040810160208201356401000000008111156105d357600080fd5b8201836020820111156105e557600080fd5b8035906020019184600183028401116401000000008311171561060757600080fd5b91908080601f0160208091040260200160405190810160405280939291908181526020018383808284376000920191909152509295506112b3945050505050565b34801561065457600080fd5b506103776004803603604081101561066b57600080fd5b81019060208101813564010000000081111561068657600080fd5b82018360208201111561069857600080fd5b803590602001918460018302840111640100000000831117156106ba57600080fd5b91908080601f01602080910402602001604051908101604052809392919081815260200183838082843760009201919091525092955050509035600160a060020a031691506114c39050565b34801561071257600080fd5b5061038e6004803603602081101561072957600080fd5b81019060208101813564010000000081111561074457600080fd5b82018360208201111561075657600080fd5b8035906020019184600183028401116401000000008311171561077857600080fd5b91908080601f016020809104026020016040519081016040528093929190818152602001838380828437600092019190915250929550611796945050505050565b3480156107c557600080fd5b5061038e600480360360208110156107dc57600080fd5b8101906020810181356401000000008111156107f757600080fd5b82018360208201111561080957600080fd5b8035906020019184600183028401116401000000008311171561082b57600080fd5b91908080601f01602080910402602001604051908101604052809392919081815260200183838082843760009201919091525092955061181e945050505050565b34801561087857600080fd5b506103776004803603604081101561088f57600080fd5b600160a060020a0382351691908101906040810160208201356401000000008111156108ba57600080fd5b8201836020820111156108cc57600080fd5b803590602001918460018302840111640100000000831117156108ee57600080fd5b91908080601f01602080910402602001604051908101604052809392919081815260200183838082843760009201919091525092955061189e945050505050565b34801561093b57600080fd5b506109596004803603602081101561095257600080fd5b5035611a49565b6040518083600160a060020a0316600160a060020a031681526020018060200182810382528381815181526020019150805190602001908083836000838110156102ea5781810151838201526020016102d2565b3480156109b957600080fd5b50610377600480360360408110156109d057600080fd5b5080359060200135611adc565b3480156109e957600080fd5b5061037760048036036020811015610a0057600080fd5b5035600160a060020a0316611c81565b348015610a1c57600080fd5b5061038e60048036036020811015610a3357600080fd5b810190602081018135640100000000811115610a4e57600080fd5b820183602082011115610a6057600080fd5b80359060200191846001830284011164010000000083111715610a8257600080fd5b91908080601f016020809104026020016040519081016040528093929190818152602001838380828437600092019190915250929550611e02945050505050565b348015610acf57600080fd5b5061037760048036036020811015610ae657600080fd5b5035600160a060020a0316611e82565b348015610b0257600080fd5b50610489611eda565b60008060606000610b90610b1e86611ee9565b6040516020018082805190602001908083835b60208310610b505780518252601f199092019160209182019101610b31565b6001836020036101000a03801982511681845116808217855250505050505090500191505060405160208183030381529060405280519060200120611f6e565b80546001808301546002808501805460408051602061010097841615979097026000190190921693909304601f81018690048602820186019093528281529596509394600160a060020a039092169392839190830182828015610c345780601f10610c0957610100808354040283529160200191610c34565b820191906000526020600020905b815481529060010190602001808311610c1757829003601f168201915b50505050509050935093509350509193909250565b600160a060020a0381166000908152600b60205260408120546060908290610c7090611f6e565b8054600280830180546040805160206001841615610100026000190190931694909404601f810183900483028501830190915280845294955092939092839190830182828015610d015780601f10610cd657610100808354040283529160200191610d01565b820191906000526020600020905b815481529060010190602001808311610ce457829003601f168201915b505050505090509250925050915091565b60075481565b60085481565b610d26610f5a565b1515610d6a576040805160e560020a62461bcd02815260206004820152601b6024820152600080516020612a30833981519152604482015290519081900360640190fd5b60008054604051600160a060020a03909116907f8be0079c531659141344cd1fd0a4f28419497f9722a3daafe3b4186f6b6457e0908390a360008054600160a060020a0319169055565b60035474010000000000000000000000000000000000000000900460ff1681565b6002805460408051602060018416156101000260001901909316849004601f81018490048402820184019092528181529291830182828015610e585780601f10610e2d57610100808354040283529160200191610e58565b820191906000526020600020905b815481529060010190602001808311610e3b57829003601f168201915b505050505081565b610e68610f5a565b1515610eac576040805160e560020a62461bcd02815260206004820152601b6024820152600080516020612a30833981519152604482015290519081900360640190fd5b60068054600160a060020a031916600160a060020a0392909216919091179055565b60018054604080516020600284861615610100026000190190941693909304601f81018490048402820184019092528181529291830182828015610e585780601f10610e2d57610100808354040283529160200191610e58565b600054600160a060020a03165b90565b6003547501000000000000000000000000000000000000000000900460ff1681565b600054600160a060020a0316331490565b600354600090600160a060020a03163314610ff6576040805160e560020a62461bcd02815260206004820152602160248201527f446964206e6f74206f726967696e6174652066726f6d20536e6f77666c616b6560448201527f2e00000000000000000000000000000000000000000000000000000000000000606482015290519081900360840190fd5b60085460048054604080517f70a082310000000000000000000000000000000000000000000000000000000081523293810184905290519293928392600160a060020a0316916370a08231916024808301926020929190829003018186803b15801561106157600080fd5b505afa158015611075573d6000803e3d6000fd5b505050506040513d602081101561108b57600080fd5b50511015611109576040805160e560020a62461bcd02815260206004820152602260248201527f496e73756666696369656e74207374616b656420485944524f2062616c616e6360448201527f652e000000000000000000000000000000000000000000000000000000000000606482015290519081900360840190fd5b6000606085806020019051604081101561112257600080fd5b81516020830180519193928301929164010000000081111561114357600080fd5b8201602081018481111561115657600080fd5b815164010000000081118282018710171561117057600080fd5b505092919050505091509150600560009054906101000a9004600160a060020a0316600160a060020a03166353a9698a89336040518363ffffffff1660e060020a0281526004018083815260200182600160a060020a0316600160a060020a031681526020019250505060206040518083038186803b1580156111f257600080fd5b505afa158015611206573d6000803e3d6000fd5b505050506040513d602081101561121c57600080fd5b5051151561129a576040805160e560020a62461bcd02815260206004820152602f60248201527f536e6f77666c616b65206973206e6f7420612050726f766964657220666f722060448201527f746865207061737365642045494e2e0000000000000000000000000000000000606482015290519081900360840190fd5b6112a5888284611fe1565b506001979650505050505050565b600354600090600160a060020a0316331461133e576040805160e560020a62461bcd02815260206004820152602160248201527f446964206e6f74206f726967696e6174652066726f6d20536e6f77666c616b6560448201527f2e00000000000000000000000000000000000000000000000000000000000000606482015290519081900360840190fd5b6000838152600a60205260409020546113568161260d565b151561135e57fe5b6000818152600960209081526040918290206001808201548451600160a060020a03909116938101849052848152600292830180546000199381161561010002939093019092169290920493820184905287937fdc4955845bee1c570feb327eb524548814e95acb6f1d1e6f60d55eead530339d93919290819060608201908590801561142c5780601f106114015761010080835404028352916020019161142c565b820191906000526020600020905b81548152906001019060200180831161140f57829003601f168201915b5050935050505060405180910390a260008181526009602081815260408084206001810154600160a060020a03168552600b8352818520859055888552600a835290842084905584845291905261148891600290910190612940565b600090815260096020526040902060018082018054600160a060020a03191690556003909101805461ff001916610100179055905092915050565b6006546040517fd35e656b000000000000000000000000000000000000000000000000000000008152602060048201818152855160248401528551600094600160a060020a03169363d35e656b938893928392604401918501908083838b5b8381101561153a578181015183820152602001611522565b50505050905090810190601f1680156115675780820380516001836020036101000a031916815260200191505b509250505060206040518083038186803b15801561158457600080fd5b505afa158015611598573d6000803e3d6000fd5b505050506040513d60208110156115ae57600080fd5b505190508015611791576006546040517f4bff5009000000000000000000000000000000000000000000000000000000008152602060048201818152865160248401528651600094600160a060020a031693634bff5009938993928392604401918501908083838b5b8381101561162f578181015183820152602001611617565b50505050905090810190601f16801561165c5780820380516001836020036101000a031916815260200191505b509250505060006040518083038186803b15801561167957600080fd5b505afa15801561168d573d6000803e3d6000fd5b505050506040513d6000823e601f3d908101601f1916820160409081528110156116b657600080fd5b8101908080516401000000008111156116ce57600080fd5b820160208101848111156116e157600080fd5b81516401000000008111828201871017156116fb57600080fd5b5050506020015192505050600160a060020a038381169082161461178f576040805160e560020a62461bcd02815260206004820152603460248201527f5468697320487964726f20494420697320616c726561647920636c61696d656460448201527f20627920616e6f7468657220616464726573732e000000000000000000000000606482015290519081900360840190fd5b505b505050565b60006118166117a483611ee9565b6040516020018082805190602001908083835b602083106117d65780518252601f1990920191602091820191016117b7565b6001836020036101000a0380198251168184511680821785525050505050509050019150506040516020818303038152906040528051906020012061260d565b90505b919050565b600061181661182c83611ee9565b6040516020018082805190602001908083835b6020831061185e5780518252601f19909201916020918201910161183f565b6001836020036101000a03801982511681845116808217855250505050505090500191505060405160208183030381529060405280519060200120612630565b60075460048054604080517f70a082310000000000000000000000000000000000000000000000000000000081523393810184905290519293928392600160a060020a0316916370a08231916024808301926020929190829003018186803b15801561190957600080fd5b505afa15801561191d573d6000803e3d6000fd5b505050506040513d602081101561193357600080fd5b505110156119b1576040805160e560020a62461bcd02815260206004820152602260248201527f496e73756666696369656e74207374616b656420485944524f2062616c616e6360448201527f652e000000000000000000000000000000000000000000000000000000000000606482015290519081900360840190fd5b600554604080517f05c62c2f000000000000000000000000000000000000000000000000000000008152336004820152905161178f92600160a060020a0316916305c62c2f916024808301926020929190829003018186803b158015611a1657600080fd5b505afa158015611a2a573d6000803e3d6000fd5b505050506040513d6020811015611a4057600080fd5b50518486611fe1565b6000818152600a60205260408120546060908290611a6690611f6e565b6001818101546002808401805460408051602061010097841615979097026000190190921693909304601f8101869004860282018601909352828152949550600160a060020a03909216939192839190830182828015610d015780601f10610cd657610100808354040283529160200191610d01565b611ae4610f5a565b1515611b28576040805160e560020a62461bcd02815260206004820152601b6024820152600080516020612a30833981519152604482015290519081900360640190fd5b692f0eadc3216237780000821115611b8a576040805160e560020a62461bcd02815260206004820152601260248201527f5374616b6520697320746f6f20686967682e0000000000000000000000000000604482015290519081900360640190fd5b600781905560048054604080517f18160ddd0000000000000000000000000000000000000000000000000000000081529051606493600160a060020a03909316926318160ddd92808201926020929091829003018186803b158015611bee57600080fd5b505afa158015611c02573d6000803e3d6000fd5b505050506040513d6020811015611c1857600080fd5b5051811515611c2357fe5b04811115611c7b576040805160e560020a62461bcd02815260206004820152601260248201527f5374616b6520697320746f6f20686967682e0000000000000000000000000000604482015290519081900360640190fd5b60085550565b611c89610f5a565b1515611ccd576040805160e560020a62461bcd02815260206004820152601b6024820152600080516020612a30833981519152604482015290519081900360640190fd5b611cd681612649565b600081905080600160a060020a03166375d7e4bd6040518163ffffffff1660e060020a028152600401602060405180830381600087803b158015611d1957600080fd5b505af1158015611d2d573d6000803e3d6000fd5b505050506040513d6020811015611d4357600080fd5b505160048054600160a060020a031916600160a060020a03928316178155604080517fa759ee6f00000000000000000000000000000000000000000000000000000000815290519284169263a759ee6f928281019260209291908290030181600087803b158015611db357600080fd5b505af1158015611dc7573d6000803e3d6000fd5b505050506040513d6020811015611ddd57600080fd5b505160058054600160a060020a031916600160a060020a039092169190911790555050565b6000611816611e1083611ee9565b6040516020018082805190602001908083835b60208310611e425780518252601f199092019160209182019101611e23565b6001836020036101000a038019825116818451168082178552505050505050905001915050604051602081830303815290604052805190602001206126b7565b611e8a610f5a565b1515611ece576040805160e560020a62461bcd02815260206004820152601b6024820152600080516020612a30833981519152604482015290519081900360640190fd5b611ed7816126d4565b50565b600354600160a060020a031681565b60608160005b8151811015611f6757611f218282815181101515611f0957fe5b90602001015160f860020a900460f860020a026127b5565b8282815181101515611f2f57fe5b9060200101907effffffffffffffffffffffffffffffffffffffffffffffffffffffffffffff1916908160001a905350600101611eef565b5092915050565b6000611f798261260d565b1515611fcf576040805160e560020a62461bcd02815260206004820152601660248201527f487964726f4944206973206e6f74206163746976652e00000000000000000000604482015290519081900360640190fd5b50600090815260096020526040902090565b60028251118015611ff3575060218251105b1515612049576040805160e560020a62461bcd02815260206004820152601b60248201527f487964726f49442068617320696e76616c6964206c656e6774682e0000000000604482015290519081900360640190fd5b600554604080517fd4b1cdcc000000000000000000000000000000000000000000000000000000008152600481018690523060248201529051600160a060020a039092169163d4b1cdcc91604480820192602092909190829003018186803b1580156120b457600080fd5b505afa1580156120c8573d6000803e3d6000fd5b505050506040513d60208110156120de57600080fd5b5051151561215c576040805160e560020a62461bcd02815260206004820152602960248201527f546865207061737365642045494e20686173206e6f742073657420746869732060448201527f7265736f6c7665722e0000000000000000000000000000000000000000000000606482015290519081900360840190fd5b600554604080517fa687662d00000000000000000000000000000000000000000000000000000000815260048101869052600160a060020a0384811660248301529151919092169163a687662d916044808301926020929190829003018186803b1580156121c957600080fd5b505afa1580156121dd573d6000803e3d6000fd5b505050506040513d60208110156121f357600080fd5b50511515612271576040805160e560020a62461bcd02815260206004820152603f60248201527f546865207061737365642061646472657373206973206e6f74206173736f636960448201527f617465642077697468207468652063616c6c696e67204964656e746974792e00606482015290519081900360840190fd5b61227b82826114c3565b600061229e61229961229461228f8661286c565b612891565b6128b7565b611ee9565b6040516020018082805190602001908083835b602083106122d05780518252601f1990920191602091820191016122b1565b6001836020036101000a03801982511681845116808217855250505050505090500191505060405160208183030381529060405280519060200120905061231681612630565b151561236c576040805160e560020a62461bcd02815260206004820152601760248201527f487964726f494420697320756e617661696c61626c652e000000000000000000604482015290519081900360640190fd5b6000848152600a6020526040902054156123f6576040805160e560020a62461bcd02815260206004820152602360248201527f45494e20697320616c7265616479206d617070656420746f206120487964726f60448201527f49442e0000000000000000000000000000000000000000000000000000000000606482015290519081900360840190fd5b600160a060020a0382166000908152600b60205260409020541561248a576040805160e560020a62461bcd02815260206004820152602760248201527f4164647265737320697320616c7265616479206d617070656420746f2061204860448201527f7964726f49442e00000000000000000000000000000000000000000000000000606482015290519081900360840190fd5b6040805160a081018252858152600160a060020a03848116602080840191825283850188815260016060860181905260006080870181905288815260098452969096208551815592519583018054600160a060020a0319169690941695909517909255925180519293926125049260028501920190612984565b506060828101516003909201805460809094015115156101000261ff001993151560ff1990951694909417929092169290921790556000858152600a60209081526040808320859055600160a060020a038616808452600b8352818420869055815180840191909152818152875191810191909152865188947f2036b1dad46d67484fb64d7b2041768b0c1d63e534f4b59a6fb46c1b08493df49489948994938493840192918701918190849084905b838110156125cc5781810151838201526020016125b4565b50505050905090810190601f1680156125f95780820380516001836020036101000a031916815260200191505b50935050505060405180910390a250505050565b600061261882612630565b1580156118165750612629826126b7565b1592915050565b60009081526009602052604090206003015460ff161590565b612651610f5a565b1515612695576040805160e560020a62461bcd02815260206004820152601b6024820152600080516020612a30833981519152604482015290519081900360640190fd5b60038054600160a060020a031916600160a060020a0392909216919091179055565b600090815260096020526040902060030154610100900460ff1690565b600160a060020a038116151561275a576040805160e560020a62461bcd02815260206004820152602260248201527f6e6577206f776e65722061646472657373206d757374206e6f74206265207a6560448201527f726f000000000000000000000000000000000000000000000000000000000000606482015290519081900360840190fd5b60008054604051600160a060020a03808516939216917f8be0079c531659141344cd1fd0a4f28419497f9722a3daafe3b4186f6b6457e091a360008054600160a060020a031916600160a060020a0392909216919091179055565b60007f41000000000000000000000000000000000000000000000000000000000000007fff0000000000000000000000000000000000000000000000000000000000000083161080159061284b57507f5a000000000000000000000000000000000000000000000000000000000000007fff00000000000000000000000000000000000000000000000000000000000000831611155b15612868578160f860020a900460200160f860020a029050611819565b5090565b6128746129fe565b506040805180820190915281518152602082810190820152919050565b6128996129fe565b50604080518082019091528151815260208083015190820152919050565b60608082600001516040519080825280601f01601f1916602001820160405280156128e9576020820181803883390190505b5090506000602082019050611f6781856020015186600001515b60208110612922578151835260209283019290910190601f1901612903565b905182516020929092036101000a6000190180199091169116179052565b50805460018160011615610100020316600290046000825580601f106129665750611ed7565b601f016020900490600052602060002090810190611ed79190612a15565b828054600181600116156101000203166002900490600052602060002090601f016020900481019282601f106129c557805160ff19168380011785556129f2565b828001600101855582156129f2579182015b828111156129f25782518255916020019190600101906129d7565b50612868929150612a15565b604080518082019091526000808252602082015290565b610f3591905b808211156128685760008155600101612a1b56fe4d7573742062652063616c6c656420627920746865206f776e65720000000000a165627a7a72305820c60125720b45ba22191362dff0201168b4704fdb6db483028178f9e0457080be00294d7573742062652063616c6c656420627920746865206f776e65720000000000",
  "source": "pragma solidity ^0.5.0;\r\n\r\nimport \"./StringUtils.sol\";\r\nimport \"./OldClientRaindropInterface.sol\";\r\nimport \"../../SnowflakeResolver.sol\";\r\nimport \"../../interfaces/IdentityRegistryInterface.sol\";\r\nimport \"../../interfaces/HydroInterface.sol\";\r\nimport \"../../interfaces/SnowflakeInterface.sol\";\r\n\r\ncontract ClientRaindrop is SnowflakeResolver {\r\n    // attach the StringUtils library\r\n    using StringUtils for string;\r\n    using StringUtils for StringUtils.slice;\r\n\r\n    // other SCs\r\n    HydroInterface private hydroToken;\r\n    IdentityRegistryInterface private identityRegistry;\r\n    OldClientRaindropInterface private oldClientRaindrop;\r\n\r\n    // staking requirements\r\n    uint public hydroStakeUser;\r\n    uint public hydroStakeDelegatedUser;\r\n\r\n    // User account template\r\n    struct User {\r\n        uint ein;\r\n        address _address;\r\n        string casedHydroID;\r\n        bool initialized;\r\n        bool destroyed;\r\n    }\r\n\r\n    // Mapping from uncased hydroID hashes to users\r\n    mapping (bytes32 => User) private userDirectory;\r\n    // Mapping from EIN to uncased hydroID hashes\r\n    mapping (uint => bytes32) private einDirectory;\r\n    // Mapping from address to uncased hydroID hashes\r\n    mapping (address => bytes32) private addressDirectory;\r\n\r\n    constructor(\r\n        address snowflakeAddress, address oldClientRaindropAddress, uint _hydroStakeUser, uint _hydroStakeDelegatedUser\r\n    )\r\n        SnowflakeResolver(\r\n            \"Client Raindrop\", \"A registry that links EINs to HydroIDs to power Client Raindrop MFA.\",\r\n            snowflakeAddress,\r\n            true, true\r\n        )\r\n        public\r\n    {\r\n        setSnowflakeAddress(snowflakeAddress);\r\n        setOldClientRaindropAddress(oldClientRaindropAddress);\r\n        setStakes(_hydroStakeUser, _hydroStakeDelegatedUser);\r\n    }\r\n\r\n    // Requires an address to have a minimum number of Hydro\r\n    modifier requireStake(address _address, uint stake) {\r\n        require(hydroToken.balanceOf(_address) >= stake, \"Insufficient staked HYDRO balance.\");\r\n        _;\r\n    }\r\n\r\n    // set the snowflake address, and hydro token + identity registry contract wrappers\r\n    function setSnowflakeAddress(address snowflakeAddress) public onlyOwner() {\r\n        super.setSnowflakeAddress(snowflakeAddress);\r\n\r\n        SnowflakeInterface snowflake = SnowflakeInterface(snowflakeAddress);\r\n        hydroToken = HydroInterface(snowflake.hydroTokenAddress());\r\n        identityRegistry = IdentityRegistryInterface(snowflake.identityRegistryAddress());\r\n    }\r\n\r\n    // set the old client raindrop address\r\n    function setOldClientRaindropAddress(address oldClientRaindropAddress) public onlyOwner() {\r\n        oldClientRaindrop = OldClientRaindropInterface(oldClientRaindropAddress);\r\n    }\r\n\r\n    // set minimum hydro balances required for sign ups\r\n    function setStakes(uint _hydroStakeUser, uint _hydroStakeDelegatedUser) public onlyOwner() {\r\n        // <= the airdrop amount\r\n        require(_hydroStakeUser <= 222222 * 10**18, \"Stake is too high.\");\r\n        hydroStakeUser = _hydroStakeDelegatedUser;\r\n\r\n        // <= 1% of total supply\r\n        require(_hydroStakeDelegatedUser <= hydroToken.totalSupply() / 100, \"Stake is too high.\");\r\n        hydroStakeDelegatedUser = _hydroStakeDelegatedUser;\r\n    }\r\n\r\n    // function for users calling signup for themselves\r\n    function signUp(address _address, string memory casedHydroId) public requireStake(msg.sender, hydroStakeUser) {\r\n        _signUp(identityRegistry.getEIN(msg.sender), casedHydroId, _address);\r\n    }\r\n\r\n    // function for users signing up through the snowflake provider\r\n    function onAddition(uint ein, uint, bytes memory extraData)\r\n        // solium-disable-next-line security/no-tx-origin\r\n        public senderIsSnowflake() requireStake(tx.origin, hydroStakeDelegatedUser) returns (bool)\r\n    {\r\n        (address _address, string memory casedHydroID) = abi.decode(extraData, (address, string));\r\n        require(identityRegistry.isProviderFor(ein, msg.sender), \"Snowflake is not a Provider for the passed EIN.\");\r\n        _signUp(ein, casedHydroID, _address);\r\n     \r\n        return true;\r\n    }\r\n\r\n    // Common internal logic for all user signups\r\n    function _signUp(uint ein, string memory casedHydroID, address _address) internal {\r\n        require(bytes(casedHydroID).length > 2 && bytes(casedHydroID).length < 33, \"HydroID has invalid length.\");\r\n        require(identityRegistry.isResolverFor(ein, address(this)), \"The passed EIN has not set this resolver.\");\r\n        require(\r\n            identityRegistry.isAssociatedAddressFor(ein, _address),\r\n            \"The passed address is not associated with the calling Identity.\"\r\n        );\r\n        checkForOldHydroID(casedHydroID, _address);\r\n\r\n        bytes32 uncasedHydroIDHash = keccak256(abi.encodePacked(casedHydroID.toSlice().copy().toString().lower()));\r\n        // check conditions specific to this resolver\r\n        require(hydroIDAvailable(uncasedHydroIDHash), \"HydroID is unavailable.\");\r\n        require(einDirectory[ein] == bytes32(0), \"EIN is already mapped to a HydroID.\");\r\n        require(addressDirectory[_address] == bytes32(0), \"Address is already mapped to a HydroID.\");\r\n\r\n        // update mappings\r\n        userDirectory[uncasedHydroIDHash] = User(ein, _address, casedHydroID, true, false);\r\n        einDirectory[ein] = uncasedHydroIDHash;\r\n        addressDirectory[_address] = uncasedHydroIDHash;\r\n\r\n        emit HydroIDClaimed(ein, casedHydroID, _address);\r\n    }\r\n\r\n    function checkForOldHydroID(string memory casedHydroID, address _address) public view {\r\n        bool usernameTaken = oldClientRaindrop.userNameTaken(casedHydroID);\r\n        if (usernameTaken) {\r\n            (, address takenAddress) = oldClientRaindrop.getUserByName(casedHydroID);\r\n            require(_address == takenAddress, \"This Hydro ID is already claimed by another address.\");\r\n        }\r\n    }\r\n\r\n    function onRemoval(uint ein, bytes memory) public senderIsSnowflake() returns (bool) {\r\n        bytes32 uncasedHydroIDHash = einDirectory[ein];\r\n        assert(uncasedHydroIDHashActive(uncasedHydroIDHash));\r\n\r\n        emit HydroIDDestroyed(\r\n            ein, userDirectory[uncasedHydroIDHash].casedHydroID, userDirectory[uncasedHydroIDHash]._address\r\n        );\r\n\r\n        delete addressDirectory[userDirectory[uncasedHydroIDHash]._address];\r\n        delete einDirectory[ein];\r\n        delete userDirectory[uncasedHydroIDHash].casedHydroID;\r\n        delete userDirectory[uncasedHydroIDHash]._address;\r\n        userDirectory[uncasedHydroIDHash].destroyed = true;\r\n\r\n        return true;\r\n    }\r\n\r\n\r\n    // returns whether a given hydroID is available\r\n    function hydroIDAvailable(string memory uncasedHydroID) public view returns (bool available) {\r\n        return hydroIDAvailable(keccak256(abi.encodePacked(uncasedHydroID.lower())));\r\n    }\r\n\r\n    // Returns a bool indicating whether a given uncasedHydroIDHash is available\r\n    function hydroIDAvailable(bytes32 uncasedHydroIDHash) private view returns (bool) {\r\n        return !userDirectory[uncasedHydroIDHash].initialized;\r\n    }\r\n\r\n    // returns whether a given hydroID is destroyed\r\n    function hydroIDDestroyed(string memory uncasedHydroID) public view returns (bool destroyed) {\r\n        return hydroIDDestroyed(keccak256(abi.encodePacked(uncasedHydroID.lower())));\r\n    }\r\n\r\n    // Returns a bool indicating whether a given hydroID is destroyed\r\n    function hydroIDDestroyed(bytes32 uncasedHydroIDHash) private view returns (bool) {\r\n        return userDirectory[uncasedHydroIDHash].destroyed;\r\n    }\r\n\r\n    // returns whether a given hydroID is active\r\n    function hydroIDActive(string memory uncasedHydroID) public view returns (bool active) {\r\n        return uncasedHydroIDHashActive(keccak256(abi.encodePacked(uncasedHydroID.lower())));\r\n    }\r\n\r\n    // Returns a bool indicating whether a given hydroID is active\r\n    function uncasedHydroIDHashActive(bytes32 uncasedHydroIDHash) private view returns (bool) {\r\n        return !hydroIDAvailable(uncasedHydroIDHash) && !hydroIDDestroyed(uncasedHydroIDHash);\r\n    }\r\n\r\n\r\n    // Returns details by uncased hydroID\r\n    function getDetails(string memory uncasedHydroID) public view\r\n        returns (uint ein, address _address, string memory casedHydroID)\r\n    {\r\n        User storage user = getDetails(keccak256(abi.encodePacked(uncasedHydroID.lower())));\r\n        return (user.ein, user._address, user.casedHydroID);\r\n    }\r\n\r\n    // Returns details by EIN\r\n    function getDetails(uint ein) public view returns (address _address, string memory casedHydroID) {\r\n        User storage user = getDetails(einDirectory[ein]);\r\n        return (user._address, user.casedHydroID);\r\n    }\r\n\r\n    // Returns details by address\r\n    function getDetails(address _address) public view returns (uint ein, string memory casedHydroID) {\r\n        User storage user = getDetails(addressDirectory[_address]);\r\n        return (user.ein, user.casedHydroID);\r\n    }\r\n\r\n    // common logic for all getDetails\r\n    function getDetails(bytes32 uncasedHydroIDHash) private view returns (User storage) {\r\n        require(uncasedHydroIDHashActive(uncasedHydroIDHash), \"HydroID is not active.\");\r\n        return userDirectory[uncasedHydroIDHash];\r\n    }\r\n\r\n    // Events for when a user signs up for Raindrop Client and when their account is deleted\r\n    event HydroIDClaimed(uint indexed ein, string hydroID, address userAddress);\r\n    event HydroIDDestroyed(uint indexed ein, string hydroID, address userAddress);\r\n}\r\n",
  "sourcePath": "C:/Users/HP/Desktop/programming-resources/HydroBlockchain/vaultWallet/smart-contracts/snowflake/contracts/resolvers/ClientRaindrop/ClientRaindrop.sol",
  "compiler": {
    "name": "solc",
    "version": "0.5.0+commit.1d4f565a.Emscripten.clang"
  },
  "schemaVersion": "3.0.10",
  "updatedAt": "2020-08-17T11:18:51.303Z",
  "devdoc": {
    "methods": {
      "isOwner()": {
        "return": "true if `msg.sender` is the owner of the contract.\r"
      },
      "owner()": {
        "return": "the address of the owner.\r"
      },
      "renounceOwnership()": {
        "details": "Allows the current owner to relinquish control of the contract.\r"
      },
      "transferOwnership(address)": {
        "details": "Allows the current owner to transfer control of the contract to a newOwner.\r",
        "params": {
          "newOwner": "The address to transfer ownership to.\r"
        }
      }
    }
  },
  "userdoc": {
    "methods": {
      "renounceOwnership()": {
        "notice": "Renouncing to ownership will leave the contract without an owner.\r It will not be possible to call the functions with the `onlyOwner`\r modifier anymore.\r"
      }
    }
  }
}