{
  "contractName": "Snowflake",
  "abi": [
    {
      "constant": true,
      "inputs": [
        {
          "name": "",
          "type": "uint256"
        }
      ],
      "name": "signatureNonce",
      "outputs": [
        {
          "name": "",
          "type": "uint256"
        }
      ],
      "payable": false,
      "stateMutability": "view",
      "type": "function"
    },
    {
      "constant": true,
      "inputs": [],
      "name": "clientRaindropAddress",
      "outputs": [
        {
          "name": "",
          "type": "address"
        }
      ],
      "payable": false,
      "stateMutability": "view",
      "type": "function"
    },
    {
      "constant": true,
      "inputs": [],
      "name": "signatureTimeout",
      "outputs": [
        {
          "name": "",
          "type": "uint256"
        }
      ],
      "payable": false,
      "stateMutability": "view",
      "type": "function"
    },
    {
      "constant": false,
      "inputs": [],
      "name": "renounceOwnership",
      "outputs": [],
      "payable": false,
      "stateMutability": "nonpayable",
      "type": "function"
    },
    {
      "constant": true,
      "inputs": [],
      "name": "hydroTokenAddress",
      "outputs": [
        {
          "name": "",
          "type": "address"
        }
      ],
      "payable": false,
      "stateMutability": "view",
      "type": "function"
    },
    {
      "constant": true,
      "inputs": [],
      "name": "owner",
      "outputs": [
        {
          "name": "",
          "type": "address"
        }
      ],
      "payable": false,
      "stateMutability": "view",
      "type": "function"
    },
    {
      "constant": true,
      "inputs": [],
      "name": "isOwner",
      "outputs": [
        {
          "name": "",
          "type": "bool"
        }
      ],
      "payable": false,
      "stateMutability": "view",
      "type": "function"
    },
    {
      "constant": true,
      "inputs": [],
      "name": "identityRegistryAddress",
      "outputs": [
        {
          "name": "",
          "type": "address"
        }
      ],
      "payable": false,
      "stateMutability": "view",
      "type": "function"
    },
    {
      "constant": true,
      "inputs": [
        {
          "name": "",
          "type": "uint256"
        }
      ],
      "name": "deposits",
      "outputs": [
        {
          "name": "",
          "type": "uint256"
        }
      ],
      "payable": false,
      "stateMutability": "view",
      "type": "function"
    },
    {
      "constant": true,
      "inputs": [
        {
          "name": "",
          "type": "uint256"
        },
        {
          "name": "",
          "type": "address"
        }
      ],
      "name": "resolverAllowances",
      "outputs": [
        {
          "name": "",
          "type": "uint256"
        }
      ],
      "payable": false,
      "stateMutability": "view",
      "type": "function"
    },
    {
      "constant": false,
      "inputs": [
        {
          "name": "newOwner",
          "type": "address"
        }
      ],
      "name": "transferOwnership",
      "outputs": [],
      "payable": false,
      "stateMutability": "nonpayable",
      "type": "function"
    },
    {
      "inputs": [
        {
          "name": "_identityRegistryAddress",
          "type": "address"
        },
        {
          "name": "_hydroTokenAddress",
          "type": "address"
        }
      ],
      "payable": false,
      "stateMutability": "nonpayable",
      "type": "constructor"
    },
    {
      "anonymous": false,
      "inputs": [
        {
          "indexed": true,
          "name": "ein",
          "type": "uint256"
        },
        {
          "indexed": false,
          "name": "newProviders",
          "type": "address[]"
        },
        {
          "indexed": false,
          "name": "oldProviders",
          "type": "address[]"
        },
        {
          "indexed": false,
          "name": "approvingAddress",
          "type": "address"
        }
      ],
      "name": "SnowflakeProvidersUpgraded",
      "type": "event"
    },
    {
      "anonymous": false,
      "inputs": [
        {
          "indexed": true,
          "name": "ein",
          "type": "uint256"
        },
        {
          "indexed": true,
          "name": "resolver",
          "type": "address"
        },
        {
          "indexed": false,
          "name": "withdrawAllowance",
          "type": "uint256"
        }
      ],
      "name": "SnowflakeResolverAdded",
      "type": "event"
    },
    {
      "anonymous": false,
      "inputs": [
        {
          "indexed": true,
          "name": "ein",
          "type": "uint256"
        },
        {
          "indexed": true,
          "name": "resolver",
          "type": "address"
        },
        {
          "indexed": false,
          "name": "withdrawAllowance",
          "type": "uint256"
        }
      ],
      "name": "SnowflakeResolverAllowanceChanged",
      "type": "event"
    },
    {
      "anonymous": false,
      "inputs": [
        {
          "indexed": true,
          "name": "ein",
          "type": "uint256"
        },
        {
          "indexed": true,
          "name": "resolver",
          "type": "address"
        }
      ],
      "name": "SnowflakeResolverRemoved",
      "type": "event"
    },
    {
      "anonymous": false,
      "inputs": [
        {
          "indexed": true,
          "name": "from",
          "type": "address"
        },
        {
          "indexed": true,
          "name": "einTo",
          "type": "uint256"
        },
        {
          "indexed": false,
          "name": "amount",
          "type": "uint256"
        }
      ],
      "name": "SnowflakeDeposit",
      "type": "event"
    },
    {
      "anonymous": false,
      "inputs": [
        {
          "indexed": true,
          "name": "einFrom",
          "type": "uint256"
        },
        {
          "indexed": true,
          "name": "einTo",
          "type": "uint256"
        },
        {
          "indexed": false,
          "name": "amount",
          "type": "uint256"
        }
      ],
      "name": "SnowflakeTransfer",
      "type": "event"
    },
    {
      "anonymous": false,
      "inputs": [
        {
          "indexed": true,
          "name": "einFrom",
          "type": "uint256"
        },
        {
          "indexed": true,
          "name": "to",
          "type": "address"
        },
        {
          "indexed": false,
          "name": "amount",
          "type": "uint256"
        }
      ],
      "name": "SnowflakeWithdraw",
      "type": "event"
    },
    {
      "anonymous": false,
      "inputs": [
        {
          "indexed": true,
          "name": "resolverFrom",
          "type": "address"
        }
      ],
      "name": "SnowflakeTransferFrom",
      "type": "event"
    },
    {
      "anonymous": false,
      "inputs": [
        {
          "indexed": true,
          "name": "resolverFrom",
          "type": "address"
        }
      ],
      "name": "SnowflakeWithdrawFrom",
      "type": "event"
    },
    {
      "anonymous": false,
      "inputs": [
        {
          "indexed": true,
          "name": "resolverFrom",
          "type": "address"
        },
        {
          "indexed": true,
          "name": "einTo",
          "type": "uint256"
        }
      ],
      "name": "SnowflakeTransferFromVia",
      "type": "event"
    },
    {
      "anonymous": false,
      "inputs": [
        {
          "indexed": true,
          "name": "resolverFrom",
          "type": "address"
        },
        {
          "indexed": true,
          "name": "to",
          "type": "address"
        }
      ],
      "name": "SnowflakeWithdrawFromVia",
      "type": "event"
    },
    {
      "anonymous": false,
      "inputs": [
        {
          "indexed": true,
          "name": "resolverFrom",
          "type": "address"
        },
        {
          "indexed": true,
          "name": "via",
          "type": "address"
        },
        {
          "indexed": true,
          "name": "einTo",
          "type": "uint256"
        },
        {
          "indexed": false,
          "name": "amount",
          "type": "uint256"
        }
      ],
      "name": "SnowflakeTransferToVia",
      "type": "event"
    },
    {
      "anonymous": false,
      "inputs": [
        {
          "indexed": true,
          "name": "resolverFrom",
          "type": "address"
        },
        {
          "indexed": true,
          "name": "via",
          "type": "address"
        },
        {
          "indexed": true,
          "name": "to",
          "type": "address"
        },
        {
          "indexed": false,
          "name": "amount",
          "type": "uint256"
        }
      ],
      "name": "SnowflakeWithdrawToVia",
      "type": "event"
    },
    {
      "anonymous": false,
      "inputs": [
        {
          "indexed": true,
          "name": "ein",
          "type": "uint256"
        },
        {
          "indexed": true,
          "name": "resolver",
          "type": "address"
        },
        {
          "indexed": false,
          "name": "currentAllowance",
          "type": "uint256"
        },
        {
          "indexed": false,
          "name": "requestedWithdraw",
          "type": "uint256"
        }
      ],
      "name": "SnowflakeInsufficientAllowance",
      "type": "event"
    },
    {
      "anonymous": false,
      "inputs": [
        {
          "indexed": true,
          "name": "previousOwner",
          "type": "address"
        },
        {
          "indexed": true,
          "name": "newOwner",
          "type": "address"
        }
      ],
      "name": "OwnershipTransferred",
      "type": "event"
    },
    {
      "constant": false,
      "inputs": [
        {
          "name": "_identityRegistryAddress",
          "type": "address"
        },
        {
          "name": "_hydroTokenAddress",
          "type": "address"
        }
      ],
      "name": "setAddresses",
      "outputs": [],
      "payable": false,
      "stateMutability": "nonpayable",
      "type": "function"
    },
    {
      "constant": false,
      "inputs": [
        {
          "name": "_clientRaindropAddress",
          "type": "address"
        }
      ],
      "name": "setClientRaindropAddress",
      "outputs": [],
      "payable": false,
      "stateMutability": "nonpayable",
      "type": "function"
    },
    {
      "constant": false,
      "inputs": [
        {
          "name": "recoveryAddress",
          "type": "address"
        },
        {
          "name": "associatedAddress",
          "type": "address"
        },
        {
          "name": "providers",
          "type": "address[]"
        },
        {
          "name": "casedHydroId",
          "type": "string"
        },
        {
          "name": "v",
          "type": "uint8"
        },
        {
          "name": "r",
          "type": "bytes32"
        },
        {
          "name": "s",
          "type": "bytes32"
        },
        {
          "name": "timestamp",
          "type": "uint256"
        }
      ],
      "name": "createIdentityDelegated",
      "outputs": [
        {
          "name": "ein",
          "type": "uint256"
        }
      ],
      "payable": false,
      "stateMutability": "nonpayable",
      "type": "function"
    },
    {
      "constant": false,
      "inputs": [
        {
          "name": "approvingAddress",
          "type": "address"
        },
        {
          "name": "providers",
          "type": "address[]"
        },
        {
          "name": "v",
          "type": "uint8"
        },
        {
          "name": "r",
          "type": "bytes32"
        },
        {
          "name": "s",
          "type": "bytes32"
        },
        {
          "name": "timestamp",
          "type": "uint256"
        }
      ],
      "name": "addProvidersFor",
      "outputs": [],
      "payable": false,
      "stateMutability": "nonpayable",
      "type": "function"
    },
    {
      "constant": false,
      "inputs": [
        {
          "name": "approvingAddress",
          "type": "address"
        },
        {
          "name": "providers",
          "type": "address[]"
        },
        {
          "name": "v",
          "type": "uint8"
        },
        {
          "name": "r",
          "type": "bytes32"
        },
        {
          "name": "s",
          "type": "bytes32"
        },
        {
          "name": "timestamp",
          "type": "uint256"
        }
      ],
      "name": "removeProvidersFor",
      "outputs": [],
      "payable": false,
      "stateMutability": "nonpayable",
      "type": "function"
    },
    {
      "constant": false,
      "inputs": [
        {
          "name": "approvingAddress",
          "type": "address"
        },
        {
          "name": "newProviders",
          "type": "address[]"
        },
        {
          "name": "oldProviders",
          "type": "address[]"
        },
        {
          "name": "v",
          "type": "uint8[2]"
        },
        {
          "name": "r",
          "type": "bytes32[2]"
        },
        {
          "name": "s",
          "type": "bytes32[2]"
        },
        {
          "name": "timestamp",
          "type": "uint256[2]"
        }
      ],
      "name": "upgradeProvidersFor",
      "outputs": [],
      "payable": false,
      "stateMutability": "nonpayable",
      "type": "function"
    },
    {
      "constant": false,
      "inputs": [
        {
          "name": "resolver",
          "type": "address"
        },
        {
          "name": "isSnowflake",
          "type": "bool"
        },
        {
          "name": "withdrawAllowance",
          "type": "uint256"
        },
        {
          "name": "extraData",
          "type": "bytes"
        }
      ],
      "name": "addResolver",
      "outputs": [],
      "payable": false,
      "stateMutability": "nonpayable",
      "type": "function"
    },
    {
      "constant": false,
      "inputs": [
        {
          "name": "ein",
          "type": "uint256"
        },
        {
          "name": "resolver",
          "type": "address"
        },
        {
          "name": "isSnowflake",
          "type": "bool"
        },
        {
          "name": "withdrawAllowance",
          "type": "uint256"
        },
        {
          "name": "extraData",
          "type": "bytes"
        }
      ],
      "name": "addResolverAsProvider",
      "outputs": [],
      "payable": false,
      "stateMutability": "nonpayable",
      "type": "function"
    },
    {
      "constant": false,
      "inputs": [
        {
          "name": "approvingAddress",
          "type": "address"
        },
        {
          "name": "resolver",
          "type": "address"
        },
        {
          "name": "isSnowflake",
          "type": "bool"
        },
        {
          "name": "withdrawAllowance",
          "type": "uint256"
        },
        {
          "name": "extraData",
          "type": "bytes"
        },
        {
          "name": "v",
          "type": "uint8"
        },
        {
          "name": "r",
          "type": "bytes32"
        },
        {
          "name": "s",
          "type": "bytes32"
        },
        {
          "name": "timestamp",
          "type": "uint256"
        }
      ],
      "name": "addResolverFor",
      "outputs": [],
      "payable": false,
      "stateMutability": "nonpayable",
      "type": "function"
    },
    {
      "constant": false,
      "inputs": [
        {
          "name": "approvingAddress",
          "type": "address"
        },
        {
          "name": "resolvers",
          "type": "address[]"
        },
        {
          "name": "withdrawAllowances",
          "type": "uint256[]"
        },
        {
          "name": "v",
          "type": "uint8"
        },
        {
          "name": "r",
          "type": "bytes32"
        },
        {
          "name": "s",
          "type": "bytes32"
        }
      ],
      "name": "changeResolverAllowancesDelegated",
      "outputs": [],
      "payable": false,
      "stateMutability": "nonpayable",
      "type": "function"
    },
    {
      "constant": false,
      "inputs": [
        {
          "name": "resolvers",
          "type": "address[]"
        },
        {
          "name": "withdrawAllowances",
          "type": "uint256[]"
        }
      ],
      "name": "changeResolverAllowances",
      "outputs": [],
      "payable": false,
      "stateMutability": "nonpayable",
      "type": "function"
    },
    {
      "constant": false,
      "inputs": [
        {
          "name": "approvingAddress",
          "type": "address"
        },
        {
          "name": "resolver",
          "type": "address"
        },
        {
          "name": "isSnowflake",
          "type": "bool"
        },
        {
          "name": "extraData",
          "type": "bytes"
        },
        {
          "name": "v",
          "type": "uint8"
        },
        {
          "name": "r",
          "type": "bytes32"
        },
        {
          "name": "s",
          "type": "bytes32"
        },
        {
          "name": "timestamp",
          "type": "uint256"
        }
      ],
      "name": "removeResolverFor",
      "outputs": [],
      "payable": false,
      "stateMutability": "nonpayable",
      "type": "function"
    },
    {
      "constant": false,
      "inputs": [
        {
          "name": "resolver",
          "type": "address"
        },
        {
          "name": "isSnowflake",
          "type": "bool"
        },
        {
          "name": "extraData",
          "type": "bytes"
        }
      ],
      "name": "removeResolver",
      "outputs": [],
      "payable": false,
      "stateMutability": "nonpayable",
      "type": "function"
    },
    {
      "constant": false,
      "inputs": [
        {
          "name": "approvingAddress",
          "type": "address"
        },
        {
          "name": "newRecoveryAddress",
          "type": "address"
        },
        {
          "name": "v",
          "type": "uint8"
        },
        {
          "name": "r",
          "type": "bytes32"
        },
        {
          "name": "s",
          "type": "bytes32"
        }
      ],
      "name": "triggerRecoveryAddressChangeFor",
      "outputs": [],
      "payable": false,
      "stateMutability": "nonpayable",
      "type": "function"
    },
    {
      "constant": false,
      "inputs": [
        {
          "name": "sender",
          "type": "address"
        },
        {
          "name": "amount",
          "type": "uint256"
        },
        {
          "name": "_tokenAddress",
          "type": "address"
        },
        {
          "name": "_bytes",
          "type": "bytes"
        }
      ],
      "name": "receiveApproval",
      "outputs": [],
      "payable": false,
      "stateMutability": "nonpayable",
      "type": "function"
    },
    {
      "constant": false,
      "inputs": [
        {
          "name": "einTo",
          "type": "uint256"
        },
        {
          "name": "amount",
          "type": "uint256"
        }
      ],
      "name": "transferSnowflakeBalance",
      "outputs": [],
      "payable": false,
      "stateMutability": "nonpayable",
      "type": "function"
    },
    {
      "constant": false,
      "inputs": [
        {
          "name": "to",
          "type": "address"
        },
        {
          "name": "amount",
          "type": "uint256"
        }
      ],
      "name": "withdrawSnowflakeBalance",
      "outputs": [],
      "payable": false,
      "stateMutability": "nonpayable",
      "type": "function"
    },
    {
      "constant": false,
      "inputs": [
        {
          "name": "einFrom",
          "type": "uint256"
        },
        {
          "name": "einTo",
          "type": "uint256"
        },
        {
          "name": "amount",
          "type": "uint256"
        }
      ],
      "name": "transferSnowflakeBalanceFrom",
      "outputs": [],
      "payable": false,
      "stateMutability": "nonpayable",
      "type": "function"
    },
    {
      "constant": false,
      "inputs": [
        {
          "name": "einFrom",
          "type": "uint256"
        },
        {
          "name": "to",
          "type": "address"
        },
        {
          "name": "amount",
          "type": "uint256"
        }
      ],
      "name": "withdrawSnowflakeBalanceFrom",
      "outputs": [],
      "payable": false,
      "stateMutability": "nonpayable",
      "type": "function"
    },
    {
      "constant": false,
      "inputs": [
        {
          "name": "einFrom",
          "type": "uint256"
        },
        {
          "name": "via",
          "type": "address"
        },
        {
          "name": "einTo",
          "type": "uint256"
        },
        {
          "name": "amount",
          "type": "uint256"
        },
        {
          "name": "_bytes",
          "type": "bytes"
        }
      ],
      "name": "transferSnowflakeBalanceFromVia",
      "outputs": [],
      "payable": false,
      "stateMutability": "nonpayable",
      "type": "function"
    },
    {
      "constant": false,
      "inputs": [
        {
          "name": "einFrom",
          "type": "uint256"
        },
        {
          "name": "via",
          "type": "address"
        },
        {
          "name": "to",
          "type": "address"
        },
        {
          "name": "amount",
          "type": "uint256"
        },
        {
          "name": "_bytes",
          "type": "bytes"
        }
      ],
      "name": "withdrawSnowflakeBalanceFromVia",
      "outputs": [],
      "payable": false,
      "stateMutability": "nonpayable",
      "type": "function"
    },
    {
      "constant": false,
      "inputs": [
        {
          "name": "destination",
          "type": "address"
        },
        {
          "name": "amount",
          "type": "uint256"
        },
        {
          "name": "data",
          "type": "bytes"
        },
        {
          "name": "approvingAddress",
          "type": "address"
        },
        {
          "name": "v",
          "type": "uint8"
        },
        {
          "name": "r",
          "type": "bytes32"
        },
        {
          "name": "s",
          "type": "bytes32"
        }
      ],
      "name": "allowAndCallDelegated",
      "outputs": [
        {
          "name": "returnData",
          "type": "bytes"
        }
      ],
      "payable": false,
      "stateMutability": "nonpayable",
      "type": "function"
    },
    {
      "constant": false,
      "inputs": [
        {
          "name": "destination",
          "type": "address"
        },
        {
          "name": "amount",
          "type": "uint256"
        },
        {
          "name": "data",
          "type": "bytes"
        }
      ],
      "name": "allowAndCall",
      "outputs": [
        {
          "name": "returnData",
          "type": "bytes"
        }
      ],
      "payable": false,
      "stateMutability": "nonpayable",
      "type": "function"
    }
  ],
  "bytecode": "0x6080604052620151806009553480156200001857600080fd5b5060405160408062005bc7833981018060405260408110156200003a57600080fd5b50805160209091015160008054600160a060020a0319163317808255604051600160a060020a039190911691907f8be0079c531659141344cd1fd0a4f28419497f9722a3daafe3b4186f6b6457e0908290a3620000a18282640100000000620000a9810204565b50506200018c565b620000bc6401000000006200017b810204565b15156200012a57604080517f08c379a000000000000000000000000000000000000000000000000000000000815260206004820152601b60248201527f4d7573742062652063616c6c656420627920746865206f776e65720000000000604482015290519081900360640190fd5b60038054600160a060020a0319908116600160a060020a0394851617918290556004805492851692821692909217909155600580548216928416929092179182905560068054929093169116179055565b600054600160a060020a0316331490565b615a2b806200019c6000396000f3fe6080604052600436106101925763ffffffff60e060020a60003504166309164f9c811461019757806312f1dbc8146101cf578063139546471461020b5780631dfc99c41461036557806327a0b6d8146103965780633b6da765146103e85780633e63dcc11461041857806349a79a50146104f05780635437b67c146105c45780635a967ea5146105d9578063659ab4c31461073e5780636be4d9b014610927578063715018a614610a5b57806375d7e4bd14610a70578063856b414e14610a8557806385b118aa14610ab857806387d6203814610ba75780638da5cb5b14610c7d5780638f32d59b14610c925780638f4ffcb114610cbb57806390107afe14610d8d5780639675932e14610dc85780639cd5421014610e905780639d10bb3214610f64578063a3e9ec731461102e578063a759ee6f14611180578063b02c43d014611195578063badcfbcf146111bf578063c94dbd33146111f8578063edda7815146112c9578063ef11f9da14611308578063efd96fbf14611341578063f2fde38b1461142b578063fe89e3961461145e575b600080fd5b3480156101a357600080fd5b506101cd600480360360608110156101ba57600080fd5b5080359060208101359060400135611532565b005b3480156101db57600080fd5b506101f9600480360360208110156101f257600080fd5b5035611578565b60408051918252519081900360200190f35b34801561021757600080fd5b506102f0600480360360e081101561022e57600080fd5b600160a060020a038235169160208101359181019060608101604082013564010000000081111561025e57600080fd5b82018360208201111561027057600080fd5b8035906020019184600183028401116401000000008311171561029257600080fd5b91908080601f01602080910402602001604051908101604052809392919081815260200183838082843760009201919091525092955050600160a060020a0383351693505060ff60208301351691604081013591506060013561158a565b6040805160208082528351818301528351919283929083019185019080838360005b8381101561032a578181015183820152602001610312565b50505050905090810190601f1680156103575780820380516001836020036101000a031916815260200191505b509250505060405180910390f35b34801561037157600080fd5b5061037a611651565b60408051600160a060020a039092168252519081900360200190f35b3480156103a257600080fd5b506101cd600480360360a08110156103b957600080fd5b50600160a060020a03813581169160208101359091169060ff6040820135169060608101359060800135611660565b3480156103f457600080fd5b506101cd6004803603604081101561040b57600080fd5b5080359060200135611937565b34801561042457600080fd5b506101cd600480360360a081101561043b57600080fd5b813591600160a060020a03602082013581169260408301359091169160608101359181019060a08101608082013564010000000081111561047b57600080fd5b82018360208201111561048d57600080fd5b803590602001918460018302840111640100000000831117156104af57600080fd5b91908080601f0160208091040260200160405190810160405280939291908181526020018383808284376000920191909152509295506119c2945050505050565b3480156104fc57600080fd5b506101cd600480360360c081101561051357600080fd5b600160a060020a03823516919081019060408101602082013564010000000081111561053e57600080fd5b82018360208201111561055057600080fd5b8035906020019184602083028401116401000000008311171561057257600080fd5b9190808060200260200160405190810160405280939291908181526020018383602002808284376000920191909152509295505060ff8335169350505060208101359060408101359060600135611b21565b3480156105d057600080fd5b506101f9611ef1565b3480156105e557600080fd5b506101f960048036036101008110156105fd57600080fd5b600160a060020a03823581169260208101359091169181019060608101604082013564010000000081111561063157600080fd5b82018360208201111561064357600080fd5b8035906020019184602083028401116401000000008311171561066557600080fd5b91908080602002602001604051908101604052809392919081815260200183836020028082843760009201919091525092959493602081019350359150506401000000008111156106b557600080fd5b8201836020820111156106c757600080fd5b803590602001918460018302840111640100000000831117156106e957600080fd5b91908080601f0160208091040260200160405190810160405280939291908181526020018383808284376000920191909152509295505060ff8335169350505060208101359060408101359060600135611ef7565b34801561074a57600080fd5b506101cd600480360361016081101561076257600080fd5b600160a060020a03823516919081019060408101602082013564010000000081111561078d57600080fd5b82018360208201111561079f57600080fd5b803590602001918460208302840111640100000000831117156107c157600080fd5b919080806020026020016040519081016040528093929190818152602001838360200280828437600092019190915250929594936020810193503591505064010000000081111561081157600080fd5b82018360208201111561082357600080fd5b8035906020019184602083028401116401000000008311171561084557600080fd5b9190808060200260200160405190810160405280939291908181526020018383602002808284376000920191909152505060408051808201825293969594818101949350915060029083908390808284376000920191909152505060408051808201825292959493818101939250906002908390839080828437600092019190915250506040805180820182529295949381810193925090600290839083908082843760009201919091525050604080518082018252929594938181019392509060029083908390808284376000920191909152509194506121e39350505050565b34801561093357600080fd5b506101cd6004803603604081101561094a57600080fd5b81019060208101813564010000000081111561096557600080fd5b82018360208201111561097757600080fd5b8035906020019184602083028401116401000000008311171561099957600080fd5b91908080602002602001604051908101604052809392919081815260200183836020028082843760009201919091525092959493602081019350359150506401000000008111156109e957600080fd5b8201836020820111156109fb57600080fd5b80359060200191846020830284011164010000000083111715610a1d57600080fd5b919080806020026020016040519081016040528093929190818152602001838360200280828437600092019190915250929550612387945050505050565b348015610a6757600080fd5b506101cd612411565b348015610a7c57600080fd5b5061037a6124b4565b348015610a9157600080fd5b506101cd60048036036020811015610aa857600080fd5b5035600160a060020a03166124c3565b348015610ac457600080fd5b506101cd6004803603610120811015610adc57600080fd5b600160a060020a038235811692602081013590911691604082013515159160608101359181019060a081016080820135640100000000811115610b1e57600080fd5b820183602082011115610b3057600080fd5b80359060200191846001830284011164010000000083111715610b5257600080fd5b91908080601f0160208091040260200160405190810160405280939291908181526020018383808284376000920191909152509295505060ff833516935050506020810135906040810135906060013561254b565b348015610bb357600080fd5b506101cd600480360360a0811015610bca57600080fd5b813591600160a060020a0360208201351691604082013515159160608101359181019060a081016080820135640100000000811115610c0857600080fd5b820183602082011115610c1a57600080fd5b80359060200191846001830284011164010000000083111715610c3c57600080fd5b91908080601f0160208091040260200160405190810160405280939291908181526020018383808284376000920191909152509295506125fa945050505050565b348015610c8957600080fd5b5061037a61271f565b348015610c9e57600080fd5b50610ca761272e565b604080519115158252519081900360200190f35b348015610cc757600080fd5b506101cd60048036036080811015610cde57600080fd5b600160a060020a038235811692602081013592604082013590921691810190608081016060820135640100000000811115610d1857600080fd5b820183602082011115610d2a57600080fd5b80359060200191846001830284011164010000000083111715610d4c57600080fd5b91908080601f01602080910402602001604051908101604052809392919081815260200183838082843760009201919091525092955061273f945050505050565b348015610d9957600080fd5b506101cd60048036036040811015610db057600080fd5b50600160a060020a0381358116916020013516612ffd565b348015610dd457600080fd5b506102f060048036036060811015610deb57600080fd5b600160a060020a0382351691602081013591810190606081016040820135640100000000811115610e1b57600080fd5b820183602082011115610e2d57600080fd5b80359060200191846001830284011164010000000083111715610e4f57600080fd5b91908080601f0160208091040260200160405190810160405280939291908181526020018383808284376000920191909152509295506130a7945050505050565b348015610e9c57600080fd5b506101cd600480360360a0811015610eb357600080fd5b813591600160a060020a036020820135169160408201359160608101359181019060a081016080820135640100000000811115610eef57600080fd5b820183602082011115610f0157600080fd5b80359060200191846001830284011164010000000083111715610f2357600080fd5b91908080601f016020809104026020016040519081016040528093929190818152602001838380828437600092019190915250929550613138945050505050565b348015610f7057600080fd5b506101cd60048036036060811015610f8757600080fd5b600160a060020a03823516916020810135151591810190606081016040820135640100000000811115610fb957600080fd5b820183602082011115610fcb57600080fd5b80359060200191846001830284011164010000000083111715610fed57600080fd5b91908080601f01602080910402602001604051908101604052809392919081815260200183838082843760009201919091525092955061327c945050505050565b34801561103a57600080fd5b506101cd600480360360c081101561105157600080fd5b600160a060020a03823516919081019060408101602082013564010000000081111561107c57600080fd5b82018360208201111561108e57600080fd5b803590602001918460208302840111640100000000831117156110b057600080fd5b919080806020026020016040519081016040528093929190818152602001838360200280828437600092019190915250929594936020810193503591505064010000000081111561110057600080fd5b82018360208201111561111257600080fd5b8035906020019184602083028401116401000000008311171561113457600080fd5b9190808060200260200160405190810160405280939291908181526020018383602002808284376000920191909152509295505060ff8335169350505060208101359060400135613303565b34801561118c57600080fd5b5061037a61361b565b3480156111a157600080fd5b506101f9600480360360208110156111b857600080fd5b503561362a565b3480156111cb57600080fd5b506101cd600480360360408110156111e257600080fd5b50600160a060020a03813516906020013561363c565b34801561120457600080fd5b506101cd6004803603608081101561121b57600080fd5b600160a060020a038235169160208101351515916040820135919081019060808101606082013564010000000081111561125457600080fd5b82018360208201111561126657600080fd5b8035906020019184600183028401116401000000008311171561128857600080fd5b91908080601f0160208091040260200160405190810160405280939291908181526020018383808284376000920191909152509295506136c2945050505050565b3480156112d557600080fd5b506101cd600480360360608110156112ec57600080fd5b50803590600160a060020a03602082013516906040013561374a565b34801561131457600080fd5b506101f96004803603604081101561132b57600080fd5b5080359060200135600160a060020a031661378f565b34801561134d57600080fd5b506101cd600480360361010081101561136557600080fd5b600160a060020a0382358116926020810135909116916040820135151591908101906080810160608201356401000000008111156113a257600080fd5b8201836020820111156113b457600080fd5b803590602001918460018302840111640100000000831117156113d657600080fd5b91908080601f0160208091040260200160405190810160405280939291908181526020018383808284376000920191909152509295505060ff83351693505050602081013590604081013590606001356137ac565b34801561143757600080fd5b506101cd6004803603602081101561144e57600080fd5b5035600160a060020a03166138a5565b34801561146a57600080fd5b506101cd600480360360c081101561148157600080fd5b600160a060020a0382351691908101906040810160208201356401000000008111156114ac57600080fd5b8201836020820111156114be57600080fd5b803590602001918460208302840111640100000000831117156114e057600080fd5b9190808060200260200160405190810160405280939291908181526020018383602002808284376000920191909152509295505060ff83351693505050602081013590604081013590606001356138fd565b61153c8382613c84565b611547838383613e90565b5060405133907f3bd0280dc67bfc5c83998b5eddebb84cb266dd5fea7c8552e43f1c55110e966790600090a2505050565b600a6020526000908152604090205481565b600480546040805160e060020a6305c62c2f028152600160a060020a0388811694820194909452905160609360009316916305c62c2f916024808301926020929190829003018186803b1580156115e057600080fd5b505afa1580156115f4573d6000803e3d6000fd5b505050506040513d602081101561160a57600080fd5b50516000818152600a6020526040902080546001810190915590915061163787838c8c8c868c8c8c6140ac565b611643828a8c8b6142ee565b9a9950505050505050505050565b600754600160a060020a031681565b600480546040805160e060020a6305c62c2f028152600160a060020a03898116948201949094529051600093909216916305c62c2f91602480820192602092909190829003018186803b1580156116b657600080fd5b505afa1580156116ca573d6000803e3d6000fd5b505050506040513d60208110156116e057600080fd5b50516000818152600a6020908152604080832080546001810190915560045482517f1900000000000000000000000000000000000000000000000000000000000000818601526021810195909552606060020a30810260228701527f4920617574686f72697a652074686973206368616e6765206f66205265636f7660368701527f65727920416464726573732e0000000000000000000000000000000000000000605687015260628601879052600160a060020a038c8116909102608287015260968087018490528451808803909101815260b687018086528151918701919091207f8677ebe8000000000000000000000000000000000000000000000000000000009091528d821660ba88015260da87015260ff8b1660fa87015261011a86018a905261013a860189905292519596509094911692638677ebe89261015a808301939192829003018186803b15801561183a57600080fd5b505afa15801561184e573d6000803e3d6000fd5b505050506040513d602081101561186457600080fd5b505115156118aa576040805160e560020a62461bcd02815260206004820152601260248201526000805160206159a0833981519152604482015290519081900360640190fd5b60048054604080517f2501faa5000000000000000000000000000000000000000000000000000000008152928301859052600160a060020a0389811660248501529051911691632501faa591604480830192600092919082900301818387803b15801561191657600080fd5b505af115801561192a573d6000803e3d6000fd5b5050505050505050505050565b600480546040805160e060020a6305c62c2f0281523393810193909352516119bd92600160a060020a03909216916305c62c2f916024808301926020929190829003018186803b15801561198a57600080fd5b505afa15801561199e573d6000803e3d6000fd5b505050506040513d60208110156119b457600080fd5b50518383613e90565b505050565b6119cc8583613c84565b6119d7858584614559565b600084905080600160a060020a0316633aaaa8a033888787876040518663ffffffff1660e060020a0281526004018086600160a060020a0316600160a060020a0316815260200185815260200184600160a060020a0316600160a060020a0316815260200183815260200180602001828103825283818151815260200191508051906020019080838360005b83811015611a7b578181015183820152602001611a63565b50505050905090810190601f168015611aa85780820380516001836020036101000a031916815260200191505b509650505050505050600060405180830381600087803b158015611acb57600080fd5b505af1158015611adf573d6000803e3d6000fd5b5050604051600160a060020a03871692503391507f4bf145994459e88b08345bbe483ca295ac2305df746c75740dd9d837344a9acf90600090a3505050505050565b80804210158015611b355750600954810142105b1515611b79576040805160e560020a62461bcd02815260206004820152601760248201526000805160206159c0833981519152604482015290519081900360640190fd5b600480546040805160e060020a6305c62c2f028152600160a060020a038b8116948201949094529051600093909216916305c62c2f91602480820192602092909190829003018186803b158015611bcf57600080fd5b505afa158015611be3573d6000803e3d6000fd5b505050506040513d6020811015611bf957600080fd5b81019080805190602001909291905050509050600460009054906101000a9004600160a060020a0316600160a060020a0316638677ebe889601960f860020a02600060f860020a0230868d8a6040516020018087600160f860020a031916600160f860020a031916815260010186600160f860020a031916600160f860020a031916815260010185600160a060020a0316600160a060020a0316606060020a028152601401807f4920617574686f72697a6520746861742074686573652050726f76696465727381526020017f20626520616464656420746f206d79204964656e746974792e00000000000000815250603901848152602001838051906020019060200280838360005b83811015611d1b578181015183820152602001611d03565b505050509050018281526020019650505050505050604051602081830303815290604052805190602001208989896040518663ffffffff1660e060020a0281526004018086600160a060020a0316600160a060020a031681526020018581526020018460ff1660ff1681526020018381526020018281526020019550505050505060206040518083038186803b158015611db457600080fd5b505afa158015611dc8573d6000803e3d6000fd5b505050506040513d6020811015611dde57600080fd5b50511515611e24576040805160e560020a62461bcd02815260206004820152601260248201526000805160206159a0833981519152604482015290519081900360640190fd5b60048054604080517f960b11f5000000000000000000000000000000000000000000000000000000008152928301848152602484019182528a5160448501528a51600160a060020a039093169363960b11f59386938d939290916064909101906020808601910280838360005b83811015611ea9578181015183820152602001611e91565b505050509050019350505050600060405180830381600087803b158015611ecf57600080fd5b505af1158015611ee3573d6000803e3d6000fd5b505050505050505050505050565b60095481565b600060608751600101604051908082528060200260200182016040528015611f29578160200160208202803883390190505b50905030816000815181101515611f3c57fe5b600160a060020a0390921660209283029091019091015260005b8851811015611fa7578881815181101515611f6d57fe5b906020019060200201518282600101815181101515611f8857fe5b600160a060020a03909216602092830290910190910152600101611f56565b50600454604080516000808252602082019092529091600160a060020a0316906314fb5646908d908d9086908c8c8c8c6040518963ffffffff1660e060020a0281526004018089600160a060020a0316600160a060020a0316815260200188600160a060020a0316600160a060020a0316815260200180602001806020018760ff1660ff168152602001868152602001858152602001848152602001838103835289818151815260200191508051906020019060200280838360005b8381101561207b578181015183820152602001612063565b50505050905001838103825288818151815260200191508051906020019060200280838360005b838110156120ba5781810151838201526020016120a2565b505050509050019a5050505050505050505050602060405180830381600087803b1580156120e757600080fd5b505af11580156120fb573d6000803e3d6000fd5b505050506040513d602081101561211157600080fd5b8101908080519060200190929190505050905061164381600760009054906101000a9004600160a060020a0316600160008e8d6040516020018083600160a060020a0316600160a060020a0316815260200180602001828103825283818151815260200191508051906020019080838360005b8381101561219c578181015183820152602001612184565b50505050905090810190601f1680156121c95780820380516001836020036101000a031916815260200191505b5093505050506040516020818303038152906040526147d0565b83518351835183516121fd938b938b939192909190611b21565b612227878686600160200201518660016020020151866001602002015186600160200201516138fd565b600480546040805160e060020a6305c62c2f028152600160a060020a038b8116948201949094529051600093909216916305c62c2f91602480820192602092909190829003018186803b15801561227d57600080fd5b505afa158015612291573d6000803e3d6000fd5b505050506040513d60208110156122a757600080fd5b505160408051600160a060020a038b16918101919091526060808252895190820152885191925082917f9395986444296878f4ccc8a3e3a2d2d64a2988fb3cf2fd45fd7abe7449025626918a918a918d9181906020828101916080840191888101910280838360005b83811015612328578181015183820152602001612310565b50505050905001838103825285818151815260200191508051906020019060200280838360005b8381101561236757818101518382015260200161234f565b505050509050019550505050505060405180910390a25050505050505050565b600480546040805160e060020a6305c62c2f02815233938101939093525161240d92600160a060020a03909216916305c62c2f916024808301926020929190829003018186803b1580156123da57600080fd5b505afa1580156123ee573d6000803e3d6000fd5b505050506040513d602081101561240457600080fd5b50518383614c19565b5050565b61241961272e565b151561245d576040805160e560020a62461bcd02815260206004820152601b60248201526000805160206159e0833981519152604482015290519081900360640190fd5b60008054604051600160a060020a03909116907f8be0079c531659141344cd1fd0a4f28419497f9722a3daafe3b4186f6b6457e0908390a36000805473ffffffffffffffffffffffffffffffffffffffff19169055565b600554600160a060020a031681565b6124cb61272e565b151561250f576040805160e560020a62461bcd02815260206004820152601b60248201526000805160206159e0833981519152604482015290519081900360640190fd5b6007805473ffffffffffffffffffffffffffffffffffffffff19908116600160a060020a03938416179182905560088054929093169116179055565b600480546040805160e060020a6305c62c2f028152600160a060020a038d8116948201949094529051600093909216916305c62c2f91602480820192602092909190829003018186803b1580156125a157600080fd5b505afa1580156125b5573d6000803e3d6000fd5b505050506040513d60208110156125cb57600080fd5b505190506125e18a828b8b8b8b8b8b8b8b614f12565b6125ee818a8a8a8a6147d0565b50505050505050505050565b60048054604080517f53a9698a00000000000000000000000000000000000000000000000000000000815292830188905233602484015251600160a060020a03909116916353a9698a916044808301926020929190829003018186803b15801561266357600080fd5b505afa158015612677573d6000803e3d6000fd5b505050506040513d602081101561268d57600080fd5b5051151561270b576040805160e560020a62461bcd02815260206004820152603360248201527f546865206d73672e73656e646572206973206e6f7420612050726f766964657260448201527f20666f7220746865207061737365642045494e00000000000000000000000000606482015290519081900360840190fd5b61271885858585856147d0565b5050505050565b600054600160a060020a031690565b600054600160a060020a0316331490565b33600160a060020a0383161461279f576040805160e560020a62461bcd02815260206004820152601160248201527f4d616c666f726d656420696e707574732e000000000000000000000000000000604482015290519081900360640190fd5b600554600160a060020a0383811691161461282a576040805160e560020a62461bcd02815260206004820152602d60248201527f53656e646572206973206e6f742074686520485944524f20746f6b656e20736d60448201527f61727420636f6e74726163742e00000000000000000000000000000000000000606482015290519081900360840190fd5b8051602010612b8557600654604080517f23b872dd000000000000000000000000000000000000000000000000000000008152600160a060020a03878116600483015230602483015260448201879052915191909216916323b872dd9160648083019260209291908290030181600087803b1580156128a857600080fd5b505af11580156128bc573d6000803e3d6000fd5b505050506040513d60208110156128d257600080fd5b50511515612950576040805160e560020a62461bcd02815260206004820152602360248201527f556e61626c6520746f207472616e7366657220746f6b656e206f776e6572736860448201527f69702e0000000000000000000000000000000000000000000000000000000000606482015290519081900360840190fd5b60006020825110156129e357600480546040805160e060020a6305c62c2f028152600160a060020a0389811694820194909452905192909116916305c62c2f91602480820192602092909190829003018186803b1580156129b057600080fd5b505afa1580156129c4573d6000803e3d6000fd5b505050506040513d60208110156129da57600080fd5b50519050612b07565b8180602001905160208110156129f857600080fd5b505160048054604080517f5b5aed3a00000000000000000000000000000000000000000000000000000000815292830184905251929350600160a060020a031691635b5aed3a91602480820192602092909190829003018186803b158015612a5f57600080fd5b505afa158015612a73573d6000803e3d6000fd5b505050506040513d6020811015612a8957600080fd5b50511515612b07576040805160e560020a62461bcd02815260206004820152602160248201527f54686520726563697069656e742045494e20646f6573206e6f7420657869737460448201527f2e00000000000000000000000000000000000000000000000000000000000000606482015290519081900360840190fd5b600081815260016020526040902054612b26908563ffffffff6151d916565b60016000838152602001908152602001600020819055508085600160a060020a03167fc03bd73422f0f423555852c3018d2296bec6c3fb71372de56d3ce8f5984d6812866040518082815260200191505060405180910390a350612ff7565b60008060008060608580602001905160a0811015612ba257600080fd5b815160208301516040840151606085015160808601805194969395929491939283019291640100000000811115612bd857600080fd5b82016020810184811115612beb57600080fd5b8151640100000000811182820187101715612c0557600080fd5b505092919050505094509450945094509450600660009054906101000a9004600160a060020a0316600160a060020a03166323b872dd8a858b6040518463ffffffff1660e060020a0281526004018084600160a060020a0316600160a060020a0316815260200183600160a060020a0316600160a060020a031681526020018281526020019350505050602060405180830381600087803b158015612ca957600080fd5b505af1158015612cbd573d6000803e3d6000fd5b505050506040513d6020811015612cd357600080fd5b50511515612d51576040805160e560020a62461bcd02815260206004820152602360248201527f556e61626c6520746f207472616e7366657220746f6b656e206f776e6572736860448201527f69702e0000000000000000000000000000000000000000000000000000000000606482015290519081900360840190fd5b828515612e965780600160a060020a0316633c72e43986858c866040518563ffffffff1660e060020a0281526004018085600160a060020a0316600160a060020a0316815260200184815260200183815260200180602001828103825283818151815260200191508051906020019080838360005b83811015612dde578181015183820152602001612dc6565b50505050905090810190601f168015612e0b5780820380516001836020036101000a031916815260200191505b5095505050505050600060405180830381600087803b158015612e2d57600080fd5b505af1158015612e41573d6000803e3d6000fd5b505050508284600160a060020a031686600160a060020a03167fedb6770cb1ac0722d4ee53b473075a9d9d9ada0726d38bfc29d7cefb278a6b508c6040518082815260200191505060405180910390a46125ee565b600083905081600160a060020a031663e5a1309287838d876040518563ffffffff1660e060020a0281526004018085600160a060020a0316600160a060020a0316815260200184600160a060020a0316600160a060020a0316815260200183815260200180602001828103825283818151815260200191508051906020019080838360005b83811015612f33578181015183820152602001612f1b565b50505050905090810190601f168015612f605780820380516001836020036101000a031916815260200191505b5095505050505050600060405180830381600087803b158015612f8257600080fd5b505af1158015612f96573d6000803e3d6000fd5b5050505083600160a060020a031685600160a060020a031687600160a060020a03167f0c00f14cabae1f33bca7bd1a7510da7d1188463c014549b4817ece9db32ce67d8d6040518082815260200191505060405180910390a4505050505050505b50505050565b61300561272e565b1515613049576040805160e560020a62461bcd02815260206004820152601b60248201526000805160206159e0833981519152604482015290519081900360640190fd5b6003805473ffffffffffffffffffffffffffffffffffffffff19908116600160a060020a0394851617918290556004805492851692821692909217909155600580548216928416929092179182905560068054929093169116179055565b600480546040805160e060020a6305c62c2f02815233938101939093525160609261313092600160a060020a0316916305c62c2f91602480820192602092909190829003018186803b1580156130fc57600080fd5b505afa158015613110573d6000803e3d6000fd5b505050506040513d602081101561312657600080fd5b50518486856142ee565b949350505050565b6131428583613c84565b61314d858584614559565b600084905080600160a060020a0316631c75edfe33888787876040518663ffffffff1660e060020a0281526004018086600160a060020a0316600160a060020a0316815260200185815260200184815260200183815260200180602001828103825283818151815260200191508051906020019080838360005b838110156131df5781810151838201526020016131c7565b50505050905090810190601f16801561320c5780820380516001836020036101000a031916815260200191505b509650505050505050600060405180830381600087803b15801561322f57600080fd5b505af1158015613243573d6000803e3d6000fd5b50506040518692503391507f1dd3c359182056ab5063bcdbab2346601270459beb53cabcbd39ca79f050336890600090a3505050505050565b600480546040805160e060020a6305c62c2f0281523393810193909352516119bd92600160a060020a03909216916305c62c2f916024808301926020929190829003018186803b1580156132cf57600080fd5b505afa1580156132e3573d6000803e3d6000fd5b505050506040513d60208110156132f957600080fd5b505184848461523d565b600480546040805160e060020a6305c62c2f028152600160a060020a038a8116948201949094529051600093909216916305c62c2f91602480820192602092909190829003018186803b15801561335957600080fd5b505afa15801561336d573d6000803e3d6000fd5b505050506040513d602081101561338357600080fd5b810190808051906020019092919050505090506000600a60008381526020019081526020016000206000815480929190600101919050559050600460009054906101000a9004600160a060020a0316600160a060020a0316638677ebe889601960f860020a02600060f860020a0230878d8d896040516020018088600160f860020a031916600160f860020a031916815260010187600160f860020a031916600160f860020a031916815260010186600160a060020a0316600160a060020a0316606060020a028152601401807f4920617574686f72697a652074686973206368616e676520696e205265736f6c81526020017f76657220616c6c6f77616e6365732e0000000000000000000000000000000000815250602f01858152602001848051906020019060200280838360005b838110156134cc5781810151838201526020016134b4565b50505050905001838051906020019060200280838360005b838110156134fc5781810151838201526020016134e4565b50505050905001828152602001975050505050505050604051602081830303815290604052805190602001208888886040518663ffffffff1660e060020a0281526004018086600160a060020a0316600160a060020a031681526020018581526020018460ff1660ff1681526020018381526020018281526020019550505050505060206040518083038186803b15801561359657600080fd5b505afa1580156135aa573d6000803e3d6000fd5b505050506040513d60208110156135c057600080fd5b50511515613606576040805160e560020a62461bcd02815260206004820152601260248201526000805160206159a0833981519152604482015290519081900360640190fd5b613611828888614c19565b5050505050505050565b600354600160a060020a031681565b60016020526000908152604090205481565b600480546040805160e060020a6305c62c2f02815233938101939093525161240d92600160a060020a03909216916305c62c2f916024808301926020929190829003018186803b15801561368f57600080fd5b505afa1580156136a3573d6000803e3d6000fd5b505050506040513d60208110156136b957600080fd5b50518383614559565b600480546040805160e060020a6305c62c2f028152339381019390935251612ff792600160a060020a03909216916305c62c2f916024808301926020929190829003018186803b15801561371557600080fd5b505afa158015613729573d6000803e3d6000fd5b505050506040513d602081101561373f57600080fd5b5051858585856147d0565b6137548382613c84565b61375f838383614559565b60405133907f8262975dcca6e765bc0c030d671a00379895d3f60ab5f0033ca4aa088074646b90600090a2505050565b600260209081526000928352604080842090915290825290205481565b808042101580156137c05750600954810142105b1515613804576040805160e560020a62461bcd02815260206004820152601760248201526000805160206159c0833981519152604482015290519081900360640190fd5b600480546040805160e060020a6305c62c2f028152600160a060020a038d8116948201949094529051600093909216916305c62c2f91602480820192602092909190829003018186803b15801561385a57600080fd5b505afa15801561386e573d6000803e3d6000fd5b505050506040513d602081101561388457600080fd5b505190506138998a828b8b8b8b8b8b8b61565a565b6125ee818a8a8a61523d565b6138ad61272e565b15156138f1576040805160e560020a62461bcd02815260206004820152601b60248201526000805160206159e0833981519152604482015290519081900360640190fd5b6138fa81615851565b50565b808042101580156139115750600954810142105b1515613955576040805160e560020a62461bcd02815260206004820152601760248201526000805160206159c0833981519152604482015290519081900360640190fd5b600480546040805160e060020a6305c62c2f028152600160a060020a038b8116948201949094529051600093909216916305c62c2f91602480820192602092909190829003018186803b1580156139ab57600080fd5b505afa1580156139bf573d6000803e3d6000fd5b505050506040513d60208110156139d557600080fd5b81019080805190602001909291905050509050600460009054906101000a9004600160a060020a0316600160a060020a0316638677ebe889601960f860020a02600060f860020a0230868d8a6040516020018087600160f860020a031916600160f860020a031916815260010186600160f860020a031916600160f860020a031916815260010185600160a060020a0316600160a060020a0316606060020a028152601401807f4920617574686f72697a6520746861742074686573652050726f76696465727381526020017f2062652072656d6f7665642066726f6d206d79204964656e746974792e000000815250603d01848152602001838051906020019060200280838360005b83811015613af7578181015183820152602001613adf565b505050509050018281526020019650505050505050604051602081830303815290604052805190602001208989896040518663ffffffff1660e060020a0281526004018086600160a060020a0316600160a060020a031681526020018581526020018460ff1660ff1681526020018381526020018281526020019550505050505060206040518083038186803b158015613b9057600080fd5b505afa158015613ba4573d6000803e3d6000fd5b505050506040513d6020811015613bba57600080fd5b50511515613c00576040805160e560020a62461bcd02815260206004820152601260248201526000805160206159a0833981519152604482015290519081900360640190fd5b60048054604080517f06c93c36000000000000000000000000000000000000000000000000000000008152928301848152602484019182528a5160448501528a51600160a060020a03909316936306c93c369386938d9392909160649091019060208086019102808383600083811015611ea9578181015183820152602001611e91565b600480546040805160e260020a63352c737302815292830185905233602484015251600160a060020a039091169163d4b1cdcc916044808301926020929190829003018186803b158015613cd757600080fd5b505afa158015613ceb573d6000803e3d6000fd5b505050506040513d6020811015613d0157600080fd5b50511515613d7f576040805160e560020a62461bcd02815260206004820152602e60248201527f5265736f6c76657220686173206e6f74206265656e207365742062792066726f60448201527f6d20746f6b656e686f6c6465722e000000000000000000000000000000000000606482015290519081900360840190fd5b6000828152600260209081526040808320338452909152902054811115613e455760008281526002602090815260408083203380855290835292819020548151908152918201849052805185927fe8197a2184c184c738bfd08f3ee78a377cde69118a3d580480d00a9208d6bdf392908290030190a36040805160e560020a62461bcd02815260206004820152601660248201527f496e73756666696369656e7420416c6c6f77616e636500000000000000000000604482015290519081900360640190fd5b6000828152600260209081526040808320338452909152902054613e6f908263ffffffff61593f16565b60009283526002602090815260408085203386529091529092209190915550565b60048054604080517f5b5aed3a0000000000000000000000000000000000000000000000000000000081529283018590525160009285926001928392600160a060020a0390921691635b5aed3a916024808301926020929190829003018186803b158015613efd57600080fd5b505afa158015613f11573d6000803e3d6000fd5b505050506040513d6020811015613f2757600080fd5b5051151514613f80576040805160e560020a62461bcd02815260206004820152601760248201527f5468652045494e20646f6573206e6f742065786973742e000000000000000000604482015290519081900360640190fd5b60008681526001602052604090205484111561400c576040805160e560020a62461bcd02815260206004820152603660248201527f43616e6e6f74207769746864726177206d6f7265207468616e2074686520637560448201527f7272656e74206465706f7369742062616c616e63652e00000000000000000000606482015290519081900360840190fd5b60008681526001602052604090205461402b908563ffffffff61593f16565b600087815260016020526040808220929092558681522054614053908563ffffffff6151d916565b600160008781526020019081526020016000208190555084867ffc1e758cdfd0000672c8f8e0557fdae32b207ab6040726e3e91a363ac1ea234a866040518082815260200191505060405180910390a350509392505050565b600460009054906101000a9004600160a060020a0316600160a060020a0316638677ebe88a601960f860020a02600060f860020a02308d8d8d8d8d6040516020018089600160f860020a031916600160f860020a031916815260010188600160f860020a031916600160f860020a031916815260010187600160a060020a0316600160a060020a0316606060020a028152601401807f4920617574686f72697a65207468697320616c6c6f7720616e642063616c6c2e81525060200186815260200185600160a060020a0316600160a060020a0316606060020a02815260140184815260200183805190602001908083835b602083106141bd5780518252601f19909201916020918201910161419e565b6001836020036101000a03801982511681845116808217855250505050505090500182815260200198505050505050505050604051602081830303815290604052805190602001208686866040518663ffffffff1660e060020a0281526004018086600160a060020a0316600160a060020a031681526020018581526020018460ff1660ff1681526020018381526020018281526020019550505050505060206040518083038186803b15801561427357600080fd5b505afa158015614287573d6000803e3d6000fd5b505050506040513d602081101561429d57600080fd5b505115156142e3576040805160e560020a62461bcd02815260206004820152601260248201526000805160206159a0833981519152604482015290519081900360640190fd5b505050505050505050565b600480546040805160e260020a63352c7373028152928301879052600160a060020a0385811660248501529051606093919092169163d4b1cdcc91604480820192602092909190829003018186803b15801561434957600080fd5b505afa15801561435d573d6000803e3d6000fd5b505050506040513d602081101561437357600080fd5b505115156143f1576040805160e560020a62461bcd02815260206004820152603160248201527f44657374696e6174696f6e20686173206e6f74206265656e207365742062792060448201527f66726f6d20746f6b656e686f6c6465722e000000000000000000000000000000606482015290519081900360840190fd5b831561444e576000858152600260209081526040808320600160a060020a038716845290915290205461442a908563ffffffff6151d916565b6000868152600260209081526040808320600160a060020a03881684529091529020555b6000606084600160a060020a0316846040518082805190602001908083835b6020831061448c5780518252601f19909201916020918201910161446d565b6001836020036101000a0380198251168184511680821785525050505050509050019150506000604051808303816000865af19150503d80600081146144ee576040519150601f19603f3d011682016040523d82523d6000602084013e6144f3565b606091505b509150915081151561454f576040805160e560020a62461bcd02815260206004820152601860248201527f43616c6c20776173206e6f74207375636365737366756c2e0000000000000000604482015290519081900360640190fd5b9695505050505050565b600160a060020a0382163014156145e0576040805160e560020a62461bcd02815260206004820152603760248201527f43616e6e6f74207472616e7366657220746f2074686520536e6f77666c616b6560448201527f20736d61727420636f6e747261637420697473656c662e000000000000000000606482015290519081900360840190fd5b60008381526001602052604090205481111561466c576040805160e560020a62461bcd02815260206004820152603660248201527f43616e6e6f74207769746864726177206d6f7265207468616e2074686520637560448201527f7272656e74206465706f7369742062616c616e63652e00000000000000000000606482015290519081900360840190fd5b60008381526001602052604090205461468b908263ffffffff61593f16565b60008481526001602090815260408083209390935560065483517fa9059cbb000000000000000000000000000000000000000000000000000000008152600160a060020a038781166004830152602482018790529451949091169363a9059cbb93604480840194938390030190829087803b15801561470957600080fd5b505af115801561471d573d6000803e3d6000fd5b505050506040513d602081101561473357600080fd5b5051151561478b576040805160e560020a62461bcd02815260206004820152601960248201527f5472616e736665722077617320756e7375636365737366756c00000000000000604482015290519081900360640190fd5b604080518281529051600160a060020a0384169185917faaa7de357803e36044e97c4f0d438a72b371380bff06b41e9b921b8f61cb489e9181900360200190a3505050565b600480546040805160e260020a63352c7373028152928301889052600160a060020a038781166024850152905191169163d4b1cdcc916044808301926020929190829003018186803b15801561482557600080fd5b505afa158015614839573d6000803e3d6000fd5b505050506040513d602081101561484f57600080fd5b5051156148cc576040805160e560020a62461bcd02815260206004820152602760248201527f4964656e746974792068617320616c726561647920736574207468697320726560448201527f736f6c7665722e00000000000000000000000000000000000000000000000000606482015290519081900360840190fd5b60408051600180825281830190925260609160208083019080388339019050509050848160008151811015156148fe57fe5b600160a060020a03928316602091820290920181019190915260048054604080517f010887dc0000000000000000000000000000000000000000000000000000000081529283018b815260248401918252865160448501528651929095169463010887dc948c948894929392606490910191858101910280838360005b8381101561499357818101518382015260200161497b565b505050509050019350505050600060405180830381600087803b1580156149b957600080fd5b505af11580156149cd573d6000803e3d6000fd5b505050508315614c11576000868152600260209081526040808320600160a060020a0389168085529083529281902086905580517f71790251000000000000000000000000000000000000000000000000000000008152905188939263717902519260048082019391829003018186803b158015614a4a57600080fd5b505afa158015614a5e573d6000803e3d6000fd5b505050506040513d6020811015614a7457600080fd5b505115614bcf576040517f90bfaf400000000000000000000000000000000000000000000000000000000081526004810188815260248201869052606060448301908152855160648401528551600160a060020a038516936390bfaf40938c938a938a9360840190602085019080838360005b83811015614aff578181015183820152602001614ae7565b50505050905090810190601f168015614b2c5780820380516001836020036101000a031916815260200191505b50945050505050602060405180830381600087803b158015614b4d57600080fd5b505af1158015614b61573d6000803e3d6000fd5b505050506040513d6020811015614b7757600080fd5b50511515614bcf576040805160e560020a62461bcd02815260206004820152601060248201527f5369676e207570206661696c7572652e00000000000000000000000000000000604482015290519081900360640190fd5b604080518581529051600160a060020a0388169189917fa5a2dcb81990508894586bccd9070af644f5b33c720292251377ad26fc26b8809181900360200190a3505b505050505050565b8051825114614c72576040805160e560020a62461bcd02815260206004820152601160248201527f4d616c666f726d656420696e707574732e000000000000000000000000000000604482015290519081900360640190fd5b60005b8251811015612ff7576004548351600160a060020a039091169063d4b1cdcc908690869085908110614ca357fe5b906020019060200201516040518363ffffffff1660e060020a0281526004018083815260200182600160a060020a0316600160a060020a031681526020019250505060206040518083038186803b158015614cfd57600080fd5b505afa158015614d11573d6000803e3d6000fd5b505050506040513d6020811015614d2757600080fd5b50511515614da5576040805160e560020a62461bcd02815260206004820152602360248201527f4964656e7469747920686173206e6f74207365742074686973207265736f6c7660448201527f65722e0000000000000000000000000000000000000000000000000000000000606482015290519081900360840190fd5b60008481526002602052604081208451909190859084908110614dc457fe5b6020908102909101810151600160a060020a031682528101919091526040016000205415614e3c576040805160e560020a62461bcd02815260206004820152601360248201527f416c6c6f77616e6365206973206e6f7420302e00000000000000000000000000604482015290519081900360640190fd5b8181815181101515614e4a57fe5b906020019060200201516002600086815260200190815260200160002060008584815181101515614e7757fe5b6020908102909101810151600160a060020a03168252810191909152604001600020558251839082908110614ea857fe5b90602001906020020151600160a060020a0316847ffb55528a8074c988c79fef57f3a73aebf780773d5152d785bbaf700c9e3532d38484815181101515614eeb57fe5b906020019060200201516040518082815260200191505060405180910390a3600101614c75565b80804210158015614f265750600954810142105b1515614f6a576040805160e560020a62461bcd02815260206004820152601760248201526000805160206159c0833981519152604482015290519081900360640190fd5b600460009054906101000a9004600160a060020a0316600160a060020a0316638677ebe88c601960f860020a02600060f860020a02308f8f8f8f8f8c604051602001808a600160f860020a031916600160f860020a031916815260010189600160f860020a031916600160f860020a031916815260010188600160a060020a0316600160a060020a0316606060020a028152601401807f4920617574686f72697a6520746861742074686973207265736f6c766572206281526020017f6520616464656420746f206d79204964656e746974792e00000000000000000081525060370187815260200186600160a060020a0316600160a060020a0316606060020a028152601401851515151560f860020a02815260010184815260200183805190602001908083835b602083106150b25780518252601f199092019160209182019101615093565b6001836020036101000a0380198251168184511680821785525050505050509050018281526020019950505050505050505050604051602081830303815290604052805190602001208888886040518663ffffffff1660e060020a0281526004018086600160a060020a0316600160a060020a031681526020018581526020018460ff1660ff1681526020018381526020018281526020019550505050505060206040518083038186803b15801561516957600080fd5b505afa15801561517d573d6000803e3d6000fd5b505050506040513d602081101561519357600080fd5b5051151561192a576040805160e560020a62461bcd02815260206004820152601260248201526000805160206159a0833981519152604482015290519081900360640190fd5b600082820183811015615236576040805160e560020a62461bcd02815260206004820152601260248201527f736f6d657468696e672068617070656e65640000000000000000000000000000604482015290519081900360640190fd5b9392505050565b600480546040805160e260020a63352c7373028152928301879052600160a060020a038681166024850152905191169163d4b1cdcc916044808301926020929190829003018186803b15801561529257600080fd5b505afa1580156152a6573d6000803e3d6000fd5b505050506040513d60208110156152bc57600080fd5b5051151561533a576040805160e560020a62461bcd02815260206004820152602760248201527f4964656e7469747920686173206e6f742079657420736574207468697320726560448201527f736f6c7665722e00000000000000000000000000000000000000000000000000606482015290519081900360840190fd5b6000848152600260209081526040808320600160a060020a0387168452909152812055811561555957600083905080600160a060020a0316638f06492d6040518163ffffffff1660e060020a02815260040160206040518083038186803b1580156153a457600080fd5b505afa1580156153b8573d6000803e3d6000fd5b505050506040513d60208110156153ce57600080fd5b50511561552157604080517f9182621a0000000000000000000000000000000000000000000000000000000081526004810187815260248201928352845160448301528451600160a060020a03851693639182621a938a93889390929160640190602085019080838360005b8381101561545257818101518382015260200161543a565b50505050905090810190601f16801561547f5780820380516001836020036101000a031916815260200191505b509350505050602060405180830381600087803b15801561549f57600080fd5b505af11580156154b3573d6000803e3d6000fd5b505050506040513d60208110156154c957600080fd5b50511515615521576040805160e560020a62461bcd02815260206004820152601060248201527f52656d6f76616c206661696c7572652e00000000000000000000000000000000604482015290519081900360640190fd5b604051600160a060020a0385169086907fd1b5265e776cc74b7c19e1f79f0eb431189105741c07f3bb870f17ce3ba4aed890600090a3505b604080516001808252818301909252606091602080830190803883390190505090508381600081518110151561558b57fe5b600160a060020a03928316602091820290920181019190915260048054604080517f5726f6600000000000000000000000000000000000000000000000000000000081529283018a8152602484019182528651604485015286519290951694635726f660948b948894929392606490910191858101910280838360005b83811015615620578181015183820152602001615608565b505050509050019350505050600060405180830381600087803b15801561564657600080fd5b505af11580156142e3573d6000803e3d6000fd5b600460009054906101000a9004600160a060020a0316600160a060020a0316638677ebe88a601960f860020a02600060f860020a02308d8d8d8d8a6040516020018089600160f860020a031916600160f860020a031916815260010188600160f860020a031916600160f860020a031916815260010187600160a060020a0316600160a060020a0316606060020a028152601401807f4920617574686f72697a652074686174207468657365205265736f6c7665727381526020017f2062652072656d6f7665642066726f6d206d79204964656e746974792e000000815250603d0186815260200185600160a060020a0316600160a060020a0316606060020a028152601401841515151560f860020a02815260010183805190602001908083835b6020831061579b5780518252601f19909201916020918201910161577c565b6001836020036101000a03801982511681845116808217855250505050505090500182815260200198505050505050505050604051602081830303815290604052805190602001208787876040518663ffffffff1660e060020a0281526004018086600160a060020a0316600160a060020a031681526020018581526020018460ff1660ff1681526020018381526020018281526020019550505050505060206040518083038186803b15801561427357600080fd5b600160a060020a03811615156158d7576040805160e560020a62461bcd02815260206004820152602260248201527f6e6577206f776e65722061646472657373206d757374206e6f74206265207a6560448201527f726f000000000000000000000000000000000000000000000000000000000000606482015290519081900360840190fd5b60008054604051600160a060020a03808516939216917f8be0079c531659141344cd1fd0a4f28419497f9722a3daafe3b4186f6b6457e091a36000805473ffffffffffffffffffffffffffffffffffffffff1916600160a060020a0392909216919091179055565b600082821115615999576040805160e560020a62461bcd02815260206004820152601260248201527f736f6d657468696e672068617070656e65640000000000000000000000000000604482015290519081900360640190fd5b5090039056fe5065726d697373696f6e2064656e6965642e000000000000000000000000000054696d657374616d70206973206e6f742076616c69642e0000000000000000004d7573742062652063616c6c656420627920746865206f776e65720000000000a165627a7a7230582010647bff9136dae0ad99160eac93ff269f1e8a05a562b739009f28c4bcf80b000029",
  "source": "pragma solidity ^0.5.0;\r\n\r\nimport \"./zeppelin/ownership/Ownable.sol\";\r\nimport \"./zeppelin/math/SafeMath.sol\";\r\n\r\nimport \"./interfaces/HydroInterface.sol\";\r\nimport \"./interfaces/SnowflakeResolverInterface.sol\";\r\nimport \"./interfaces/SnowflakeViaInterface.sol\";\r\nimport \"./interfaces/IdentityRegistryInterface.sol\";\r\nimport \"./interfaces/ClientRaindropInterface.sol\";\r\n\r\ncontract Snowflake is Ownable {\r\n    using SafeMath for uint;\r\n\r\n    // mapping of EIN to hydro token deposits\r\n    mapping (uint => uint) public deposits;\r\n    // mapping from EIN to resolver to allowance\r\n    mapping (uint => mapping (address => uint)) public resolverAllowances;\r\n\r\n    // SC variables\r\n    address public identityRegistryAddress;\r\n    IdentityRegistryInterface private identityRegistry;\r\n    address public hydroTokenAddress;\r\n    HydroInterface private hydroToken;\r\n    address public clientRaindropAddress;\r\n    ClientRaindropInterface private clientRaindrop;\r\n\r\n    // signature variables\r\n    uint public signatureTimeout = 1 days;\r\n    mapping (uint => uint) public signatureNonce;\r\n\r\n    constructor (address _identityRegistryAddress, address _hydroTokenAddress) public {\r\n        setAddresses(_identityRegistryAddress, _hydroTokenAddress);\r\n    }\r\n\r\n    // enforces that a particular EIN exists\r\n    modifier identityExists(uint ein, bool check) {\r\n        require(identityRegistry.identityExists(ein) == check, \"The EIN does not exist.\");\r\n        _;\r\n    }\r\n\r\n    // enforces signature timeouts\r\n    modifier ensureSignatureTimeValid(uint timestamp) {\r\n        require(\r\n            // solium-disable-next-line security/no-block-members\r\n            block.timestamp >= timestamp && block.timestamp < timestamp + signatureTimeout, \"Timestamp is not valid.\"\r\n        );\r\n        _;\r\n    }\r\n\r\n\r\n    // set the hydro token and identity registry addresses\r\n    function setAddresses(address _identityRegistryAddress, address _hydroTokenAddress) public onlyOwner {\r\n        identityRegistryAddress = _identityRegistryAddress;\r\n        identityRegistry = IdentityRegistryInterface(identityRegistryAddress);\r\n\r\n        hydroTokenAddress = _hydroTokenAddress;\r\n        hydroToken = HydroInterface(hydroTokenAddress);\r\n    }\r\n\r\n    function setClientRaindropAddress(address _clientRaindropAddress) public onlyOwner {\r\n        clientRaindropAddress = _clientRaindropAddress;\r\n        clientRaindrop = ClientRaindropInterface(clientRaindropAddress);\r\n    }\r\n\r\n    // wrap createIdentityDelegated and initialize the client raindrop resolver\r\n    function createIdentityDelegated(\r\n        address recoveryAddress, address associatedAddress, address[] memory providers, string memory casedHydroId,\r\n        uint8 v, bytes32 r, bytes32 s, uint timestamp\r\n    )\r\n        public returns (uint ein)\r\n    {\r\n        address[] memory _providers = new address[](providers.length + 1);\r\n        _providers[0] = address(this);\r\n        for (uint i; i < providers.length; i++) {\r\n            _providers[i + 1] = providers[i];\r\n        }\r\n\r\n        uint _ein = identityRegistry.createIdentityDelegated(\r\n            recoveryAddress, associatedAddress, _providers, new address[](0), v, r, s, timestamp\r\n        );\r\n\r\n        _addResolver(_ein, clientRaindropAddress, true, 0, abi.encode(associatedAddress, casedHydroId));\r\n\r\n        return _ein;\r\n    }\r\n\r\n    // permission addProvidersFor by signature\r\n    function addProvidersFor(\r\n        address approvingAddress, address[] memory providers, uint8 v, bytes32 r, bytes32 s, uint timestamp\r\n    )\r\n        public ensureSignatureTimeValid(timestamp)\r\n    {\r\n        uint ein = identityRegistry.getEIN(approvingAddress);\r\n        require(\r\n            identityRegistry.isSigned(\r\n                approvingAddress,\r\n                keccak256(\r\n                    abi.encodePacked(\r\n                        byte(0x19), byte(0), address(this),\r\n                        \"I authorize that these Providers be added to my Identity.\",\r\n                        ein, providers, timestamp\r\n                    )\r\n                ),\r\n                v, r, s\r\n            ),\r\n            \"Permission denied.\"\r\n        );\r\n\r\n        identityRegistry.addProvidersFor(ein, providers);\r\n    }\r\n\r\n    // permission removeProvidersFor by signature\r\n    function removeProvidersFor(\r\n        address approvingAddress, address[] memory providers, uint8 v, bytes32 r, bytes32 s, uint timestamp\r\n    )\r\n        public ensureSignatureTimeValid(timestamp)\r\n    {\r\n        uint ein = identityRegistry.getEIN(approvingAddress);\r\n        require(\r\n            identityRegistry.isSigned(\r\n                approvingAddress,\r\n                keccak256(\r\n                    abi.encodePacked(\r\n                        byte(0x19), byte(0), address(this),\r\n                        \"I authorize that these Providers be removed from my Identity.\",\r\n                        ein, providers, timestamp\r\n                    )\r\n                ),\r\n                v, r, s\r\n            ),\r\n            \"Permission denied.\"\r\n        );\r\n\r\n        identityRegistry.removeProvidersFor(ein, providers);\r\n    }\r\n\r\n    // permissioned addProvidersFor and removeProvidersFor by signature\r\n    function upgradeProvidersFor(\r\n        address approvingAddress, address[] memory newProviders, address[] memory oldProviders,\r\n        uint8[2] memory v, bytes32[2] memory r, bytes32[2] memory s, uint[2] memory timestamp\r\n    )\r\n        public\r\n    {\r\n        addProvidersFor(approvingAddress, newProviders, v[0], r[0], s[0], timestamp[0]);\r\n        removeProvidersFor(approvingAddress, oldProviders, v[1], r[1], s[1], timestamp[1]);\r\n        uint ein = identityRegistry.getEIN(approvingAddress);\r\n        emit SnowflakeProvidersUpgraded(ein, newProviders, oldProviders, approvingAddress);\r\n    }\r\n\r\n    // permission adding a resolver for identity of msg.sender\r\n    function addResolver(address resolver, bool isSnowflake, uint withdrawAllowance, bytes memory extraData) public {\r\n        _addResolver(identityRegistry.getEIN(msg.sender), resolver, isSnowflake, withdrawAllowance, extraData);\r\n    }\r\n\r\n    // permission adding a resolver for identity passed by a provider\r\n    function addResolverAsProvider(\r\n        uint ein, address resolver, bool isSnowflake, uint withdrawAllowance, bytes memory extraData\r\n    )\r\n        public\r\n    {\r\n        require(identityRegistry.isProviderFor(ein, msg.sender), \"The msg.sender is not a Provider for the passed EIN\");\r\n        _addResolver(ein, resolver, isSnowflake, withdrawAllowance, extraData);\r\n    }\r\n\r\n    // permission addResolversFor by signature\r\n    function addResolverFor(\r\n        address approvingAddress, address resolver, bool isSnowflake, uint withdrawAllowance, bytes memory extraData,\r\n        uint8 v, bytes32 r, bytes32 s, uint timestamp\r\n    )\r\n        public\r\n    {\r\n        uint ein = identityRegistry.getEIN(approvingAddress);\r\n\r\n        validateAddResolverForSignature(\r\n            approvingAddress, ein, resolver, isSnowflake, withdrawAllowance, extraData, v, r, s, timestamp\r\n        );\r\n\r\n        _addResolver(ein, resolver, isSnowflake, withdrawAllowance, extraData);\r\n    }\r\n\r\n    function validateAddResolverForSignature(\r\n        address approvingAddress, uint ein,\r\n        address resolver, bool isSnowflake, uint withdrawAllowance, bytes memory extraData,\r\n        uint8 v, bytes32 r, bytes32 s, uint timestamp\r\n    )\r\n        private view ensureSignatureTimeValid(timestamp)\r\n    {\r\n        require(\r\n            identityRegistry.isSigned(\r\n                approvingAddress,\r\n                keccak256(\r\n                    abi.encodePacked(\r\n                        byte(0x19), byte(0), address(this),\r\n                        \"I authorize that this resolver be added to my Identity.\",\r\n                        ein, resolver, isSnowflake, withdrawAllowance, extraData, timestamp\r\n                    )\r\n                ),\r\n                v, r, s\r\n            ),\r\n            \"Permission denied.\"\r\n        );\r\n    }\r\n\r\n    // common logic for adding resolvers\r\n    function _addResolver(uint ein, address resolver, bool isSnowflake, uint withdrawAllowance, bytes memory extraData)\r\n        private\r\n    {\r\n        require(!identityRegistry.isResolverFor(ein, resolver), \"Identity has already set this resolver.\");\r\n\r\n        address[] memory resolvers = new address[](1);\r\n        resolvers[0] = resolver;\r\n        identityRegistry.addResolversFor(ein, resolvers);\r\n\r\n        if (isSnowflake) {\r\n            resolverAllowances[ein][resolver] = withdrawAllowance;\r\n            SnowflakeResolverInterface snowflakeResolver = SnowflakeResolverInterface(resolver);\r\n            if (snowflakeResolver.callOnAddition())\r\n                require(snowflakeResolver.onAddition(ein, withdrawAllowance, extraData), \"Sign up failure.\");\r\n            emit SnowflakeResolverAdded(ein, resolver, withdrawAllowance);\r\n        }\r\n    }\r\n\r\n    // permission changing resolver allowances for identity of msg.sender\r\n    function changeResolverAllowances(address[] memory resolvers, uint[] memory withdrawAllowances) public {\r\n        changeResolverAllowances(identityRegistry.getEIN(msg.sender), resolvers, withdrawAllowances);\r\n    }\r\n\r\n    // change resolver allowances delegated\r\n    function changeResolverAllowancesDelegated(\r\n        address approvingAddress, address[] memory resolvers, uint[] memory withdrawAllowances,\r\n        uint8 v, bytes32 r, bytes32 s\r\n    )\r\n        public\r\n    {\r\n        uint ein = identityRegistry.getEIN(approvingAddress);\r\n\r\n        uint nonce = signatureNonce[ein]++;\r\n        require(\r\n            identityRegistry.isSigned(\r\n                approvingAddress,\r\n                keccak256(\r\n                    abi.encodePacked(\r\n                        byte(0x19), byte(0), address(this),\r\n                        \"I authorize this change in Resolver allowances.\",\r\n                        ein, resolvers, withdrawAllowances, nonce\r\n                    )\r\n                ),\r\n                v, r, s\r\n            ),\r\n            \"Permission denied.\"\r\n        );\r\n\r\n        changeResolverAllowances(ein, resolvers, withdrawAllowances);\r\n    }\r\n\r\n    // common logic to change resolver allowances\r\n    function changeResolverAllowances(uint ein, address[] memory resolvers, uint[] memory withdrawAllowances) private {\r\n        require(resolvers.length == withdrawAllowances.length, \"Malformed inputs.\");\r\n\r\n        for (uint i; i < resolvers.length; i++) {\r\n            require(identityRegistry.isResolverFor(ein, resolvers[i]), \"Identity has not set this resolver.\");\r\n            require(resolverAllowances[ein][resolvers[i]] == 0, \"Allowance is not 0.\");\r\n            resolverAllowances[ein][resolvers[i]] = withdrawAllowances[i];\r\n            emit SnowflakeResolverAllowanceChanged(ein, resolvers[i], withdrawAllowances[i]);\r\n        }\r\n    }\r\n\r\n    // permission removing a resolver for identity of msg.sender\r\n    function removeResolver(address resolver, bool isSnowflake, bytes memory extraData) public {\r\n        removeResolver(identityRegistry.getEIN(msg.sender), resolver, isSnowflake, extraData);\r\n    }\r\n\r\n    // permission removeResolverFor by signature\r\n    function removeResolverFor(\r\n        address approvingAddress, address resolver, bool isSnowflake, bytes memory extraData,\r\n        uint8 v, bytes32 r, bytes32 s, uint timestamp\r\n    )\r\n        public ensureSignatureTimeValid(timestamp)\r\n    {\r\n        uint ein = identityRegistry.getEIN(approvingAddress);\r\n\r\n        validateRemoveResolverForSignature(approvingAddress, ein, resolver, isSnowflake, extraData, v, r, s, timestamp);\r\n\r\n        removeResolver(ein, resolver, isSnowflake, extraData);\r\n    }\r\n\r\n    function validateRemoveResolverForSignature(\r\n        address approvingAddress, uint ein, address resolver, bool isSnowflake, bytes memory extraData,\r\n        uint8 v, bytes32 r, bytes32 s, uint timestamp\r\n    )\r\n        private view\r\n    {\r\n        require(\r\n            identityRegistry.isSigned(\r\n                approvingAddress,\r\n                keccak256(\r\n                    abi.encodePacked(\r\n                        byte(0x19), byte(0), address(this),\r\n                        \"I authorize that these Resolvers be removed from my Identity.\",\r\n                        ein, resolver, isSnowflake, extraData, timestamp\r\n                    )\r\n                ),\r\n                v, r, s\r\n            ),\r\n            \"Permission denied.\"\r\n        );\r\n    }\r\n\r\n    // common logic to remove resolvers\r\n    function removeResolver(uint ein, address resolver, bool isSnowflake, bytes memory extraData) private {\r\n        require(identityRegistry.isResolverFor(ein, resolver), \"Identity has not yet set this resolver.\");\r\n        delete resolverAllowances[ein][resolver];\r\n        if (isSnowflake) {\r\n            SnowflakeResolverInterface snowflakeResolver = SnowflakeResolverInterface(resolver);\r\n            if (snowflakeResolver.callOnRemoval())\r\n                require(snowflakeResolver.onRemoval(ein, extraData), \"Removal failure.\");\r\n            emit SnowflakeResolverRemoved(ein, resolver);\r\n        }\r\n\r\n        address[] memory resolvers = new address[](1);\r\n        resolvers[0] = resolver;\r\n        identityRegistry.removeResolversFor(ein, resolvers);\r\n    }\r\n\r\n    function triggerRecoveryAddressChangeFor(\r\n        address approvingAddress, address newRecoveryAddress, uint8 v, bytes32 r, bytes32 s\r\n    )\r\n        public\r\n    {\r\n        uint ein = identityRegistry.getEIN(approvingAddress);\r\n        uint nonce = signatureNonce[ein]++;\r\n        require(\r\n            identityRegistry.isSigned(\r\n                approvingAddress,\r\n                keccak256(\r\n                    abi.encodePacked(\r\n                        byte(0x19), byte(0), address(this),\r\n                        \"I authorize this change of Recovery Address.\",\r\n                        ein, newRecoveryAddress, nonce\r\n                    )\r\n                ),\r\n                v, r, s\r\n            ),\r\n            \"Permission denied.\"\r\n        );\r\n\r\n        identityRegistry.triggerRecoveryAddressChangeFor(ein, newRecoveryAddress);\r\n    }\r\n\r\n    // allow contract to receive HYDRO tokens\r\n    function receiveApproval(address sender, uint amount, address _tokenAddress, bytes memory _bytes) public {\r\n        require(msg.sender == _tokenAddress, \"Malformed inputs.\");\r\n        require(_tokenAddress == hydroTokenAddress, \"Sender is not the HYDRO token smart contract.\");\r\n\r\n        // depositing to an EIN\r\n        if (_bytes.length <= 32) {\r\n            require(hydroToken.transferFrom(sender, address(this), amount), \"Unable to transfer token ownership.\");\r\n            uint recipient;\r\n            if (_bytes.length < 32) {\r\n                recipient = identityRegistry.getEIN(sender);\r\n            }\r\n            else {\r\n                recipient = abi.decode(_bytes, (uint));\r\n                require(identityRegistry.identityExists(recipient), \"The recipient EIN does not exist.\");\r\n            }\r\n            deposits[recipient] = deposits[recipient].add(amount);\r\n            emit SnowflakeDeposit(sender, recipient, amount);\r\n        }\r\n        // transferring to a via\r\n        else {\r\n            (\r\n                bool isTransfer, address resolver, address via, uint to, bytes memory snowflakeCallBytes\r\n            ) = abi.decode(_bytes, (bool, address, address, uint, bytes));\r\n            require(hydroToken.transferFrom(sender, via, amount), \"Unable to transfer token ownership.\");\r\n\r\n            SnowflakeViaInterface viaContract = SnowflakeViaInterface(via);\r\n            if (isTransfer) {\r\n                viaContract.snowflakeCall(resolver, to, amount, snowflakeCallBytes);\r\n                emit SnowflakeTransferToVia(resolver, via, to, amount);\r\n            } else {\r\n                address payable payableTo = address(to);\r\n                viaContract.snowflakeCall(resolver, payableTo, amount, snowflakeCallBytes);\r\n                emit SnowflakeWithdrawToVia(resolver, via, address(to), amount);\r\n            }\r\n        }\r\n    }\r\n\r\n    // transfer snowflake balance from one snowflake holder to another\r\n    function transferSnowflakeBalance(uint einTo, uint amount) public {\r\n        _transfer(identityRegistry.getEIN(msg.sender), einTo, amount);\r\n    }\r\n\r\n    // withdraw Snowflake balance to an external address\r\n    function withdrawSnowflakeBalance(address to, uint amount) public {\r\n        _withdraw(identityRegistry.getEIN(msg.sender), to, amount);\r\n    }\r\n\r\n    // allows resolvers to transfer allowance amounts to other snowflakes (throws if unsuccessful)\r\n    function transferSnowflakeBalanceFrom(uint einFrom, uint einTo, uint amount) public {\r\n        handleAllowance(einFrom, amount);\r\n        _transfer(einFrom, einTo, amount);\r\n        emit SnowflakeTransferFrom(msg.sender);\r\n    }\r\n\r\n    // allows resolvers to withdraw allowance amounts to external addresses (throws if unsuccessful)\r\n    function withdrawSnowflakeBalanceFrom(uint einFrom, address to, uint amount) public {\r\n        handleAllowance(einFrom, amount);\r\n        _withdraw(einFrom, to, amount);\r\n        emit SnowflakeWithdrawFrom(msg.sender);\r\n    }\r\n\r\n    // allows resolvers to send withdrawal amounts to arbitrary smart contracts 'to' identities (throws if unsuccessful)\r\n    function transferSnowflakeBalanceFromVia(uint einFrom, address via, uint einTo, uint amount, bytes memory _bytes)\r\n        public\r\n    {\r\n        handleAllowance(einFrom, amount);\r\n        _withdraw(einFrom, via, amount);\r\n        SnowflakeViaInterface viaContract = SnowflakeViaInterface(via);\r\n        viaContract.snowflakeCall(msg.sender, einFrom, einTo, amount, _bytes);\r\n        emit SnowflakeTransferFromVia(msg.sender, einTo);\r\n    }\r\n\r\n    // allows resolvers to send withdrawal amounts 'to' addresses via arbitrary smart contracts\r\n    function withdrawSnowflakeBalanceFromVia(\r\n        uint einFrom, address via, address payable to, uint amount, bytes memory _bytes\r\n    )\r\n        public\r\n    {\r\n        handleAllowance(einFrom, amount);\r\n        _withdraw(einFrom, via, amount);\r\n        SnowflakeViaInterface viaContract = SnowflakeViaInterface(via);\r\n        viaContract.snowflakeCall(msg.sender, einFrom, to, amount, _bytes);\r\n        emit SnowflakeWithdrawFromVia(msg.sender, to);\r\n    }\r\n\r\n    function _transfer(uint einFrom, uint einTo, uint amount) private identityExists(einTo, true) returns (bool) {\r\n        require(deposits[einFrom] >= amount, \"Cannot withdraw more than the current deposit balance.\");\r\n        deposits[einFrom] = deposits[einFrom].sub(amount);\r\n        deposits[einTo] = deposits[einTo].add(amount);\r\n\r\n        emit SnowflakeTransfer(einFrom, einTo, amount);\r\n    }\r\n\r\n    function _withdraw(uint einFrom, address to, uint amount) internal {\r\n        require(to != address(this), \"Cannot transfer to the Snowflake smart contract itself.\");\r\n\r\n        require(deposits[einFrom] >= amount, \"Cannot withdraw more than the current deposit balance.\");\r\n        deposits[einFrom] = deposits[einFrom].sub(amount);\r\n        require(hydroToken.transfer(to, amount), \"Transfer was unsuccessful\");\r\n\r\n        emit SnowflakeWithdraw(einFrom, to, amount);\r\n    }\r\n\r\n    function handleAllowance(uint einFrom, uint amount) internal {\r\n        // check that resolver-related details are correct\r\n        require(identityRegistry.isResolverFor(einFrom, msg.sender), \"Resolver has not been set by from tokenholder.\");\r\n\r\n        if (resolverAllowances[einFrom][msg.sender] < amount) {\r\n            emit SnowflakeInsufficientAllowance(einFrom, msg.sender, resolverAllowances[einFrom][msg.sender], amount);\r\n            revert(\"Insufficient Allowance\");\r\n        }\r\n\r\n        resolverAllowances[einFrom][msg.sender] = resolverAllowances[einFrom][msg.sender].sub(amount);\r\n    }\r\n\r\n    // allowAndCall from msg.sender\r\n    function allowAndCall(address destination, uint amount, bytes memory data)\r\n        public returns (bytes memory returnData)\r\n    {\r\n        return allowAndCall(identityRegistry.getEIN(msg.sender), amount, destination, data);\r\n    }\r\n\r\n    // allowAndCall from approvingAddress with meta-transaction\r\n    function allowAndCallDelegated(\r\n        address destination, uint amount, bytes memory data, address approvingAddress, uint8 v, bytes32 r, bytes32 s\r\n    )\r\n        public returns (bytes memory returnData)\r\n    {\r\n        uint ein = identityRegistry.getEIN(approvingAddress);\r\n        uint nonce = signatureNonce[ein]++;\r\n        validateAllowAndCallDelegatedSignature(approvingAddress, ein, destination, amount, data, nonce, v, r, s);\r\n\r\n        return allowAndCall(ein, amount, destination, data);\r\n    }\r\n\r\n    function validateAllowAndCallDelegatedSignature(\r\n        address approvingAddress, uint ein, address destination, uint amount, bytes memory data, uint nonce,\r\n        uint8 v, bytes32 r, bytes32 s\r\n    )\r\n        private view\r\n    {\r\n        require(\r\n            identityRegistry.isSigned(\r\n                approvingAddress,\r\n                keccak256(\r\n                    abi.encodePacked(\r\n                        byte(0x19), byte(0), address(this),\r\n                        \"I authorize this allow and call.\", ein, destination, amount, data, nonce\r\n                    )\r\n                ),\r\n                v, r, s\r\n            ),\r\n            \"Permission denied.\"\r\n        );\r\n    }\r\n\r\n    // internal logic for allowAndCall\r\n    function allowAndCall(uint ein, uint amount, address destination, bytes memory data)\r\n        private returns (bytes memory returnData)\r\n    {\r\n        // check that resolver-related details are correct\r\n        require(identityRegistry.isResolverFor(ein, destination), \"Destination has not been set by from tokenholder.\");\r\n        if (amount != 0) {\r\n            resolverAllowances[ein][destination] = resolverAllowances[ein][destination].add(amount);\r\n        }\r\n\r\n        // solium-disable-next-line security/no-low-level-calls\r\n        (bool success, bytes memory _returnData) = destination.call(data);\r\n        require(success, \"Call was not successful.\");\r\n        return _returnData;\r\n    }\r\n\r\n    // events\r\n    event SnowflakeProvidersUpgraded(uint indexed ein, address[] newProviders, address[] oldProviders, address approvingAddress);\r\n\r\n    event SnowflakeResolverAdded(uint indexed ein, address indexed resolver, uint withdrawAllowance);\r\n    event SnowflakeResolverAllowanceChanged(uint indexed ein, address indexed resolver, uint withdrawAllowance);\r\n    event SnowflakeResolverRemoved(uint indexed ein, address indexed resolver);\r\n\r\n    event SnowflakeDeposit(address indexed from, uint indexed einTo, uint amount);\r\n    event SnowflakeTransfer(uint indexed einFrom, uint indexed einTo, uint amount);\r\n    event SnowflakeWithdraw(uint indexed einFrom, address indexed to, uint amount);\r\n\r\n    event SnowflakeTransferFrom(address indexed resolverFrom);\r\n    event SnowflakeWithdrawFrom(address indexed resolverFrom);\r\n    event SnowflakeTransferFromVia(address indexed resolverFrom, uint indexed einTo);\r\n    event SnowflakeWithdrawFromVia(address indexed resolverFrom, address indexed to);\r\n    event SnowflakeTransferToVia(address indexed resolverFrom, address indexed via, uint indexed einTo, uint amount);\r\n    event SnowflakeWithdrawToVia(address indexed resolverFrom, address indexed via, address indexed to, uint amount);\r\n\r\n    event SnowflakeInsufficientAllowance(\r\n        uint indexed ein, address indexed resolver, uint currentAllowance, uint requestedWithdraw\r\n    );\r\n}\r\n",
  "sourcePath": "C:/Users/HP/Desktop/programming-resources/HydroBlockchain/vaultWallet/smart-contracts/snowflake/contracts/Snowflake.sol",
  "compiler": {
    "name": "solc",
    "version": "0.5.0+commit.1d4f565a.Emscripten.clang"
  },
  "schemaVersion": "3.0.10",
  "updatedAt": "2020-08-17T11:19:56.622Z",
  "devdoc": {
    "methods": {
      "isOwner()": {
        "return": "true if `msg.sender` is the owner of the contract.\r"
      },
      "owner()": {
        "return": "the address of the owner.\r"
      },
      "renounceOwnership()": {
        "details": "Allows the current owner to relinquish control of the contract.\r"
      },
      "transferOwnership(address)": {
        "details": "Allows the current owner to transfer control of the contract to a newOwner.\r",
        "params": {
          "newOwner": "The address to transfer ownership to.\r"
        }
      }
    }
  },
  "userdoc": {
    "methods": {
      "renounceOwnership()": {
        "notice": "Renouncing to ownership will leave the contract without an owner.\r It will not be possible to call the functions with the `onlyOwner`\r modifier anymore.\r"
      }
    }
  }
}